{
  "_format": "hh-sol-artifact-1",
  "contractName": "TicketErc1155",
  "sourceName": "contracts/TicketErc1155.sol",
  "abi": [
    {
      "inputs": [],
      "stateMutability": "nonpayable",
      "type": "constructor"
    },
    {
      "anonymous": false,
      "inputs": [
        {
          "indexed": true,
          "internalType": "address",
          "name": "account",
          "type": "address"
        },
        {
          "indexed": true,
          "internalType": "address",
          "name": "operator",
          "type": "address"
        },
        {
          "indexed": false,
          "internalType": "bool",
          "name": "approved",
          "type": "bool"
        }
      ],
      "name": "ApprovalForAll",
      "type": "event"
    },
    {
      "anonymous": false,
      "inputs": [
        {
          "indexed": true,
          "internalType": "address",
          "name": "operator",
          "type": "address"
        },
        {
          "indexed": true,
          "internalType": "address",
          "name": "from",
          "type": "address"
        },
        {
          "indexed": true,
          "internalType": "address",
          "name": "to",
          "type": "address"
        },
        {
          "indexed": false,
          "internalType": "uint256[]",
          "name": "ids",
          "type": "uint256[]"
        },
        {
          "indexed": false,
          "internalType": "uint256[]",
          "name": "values",
          "type": "uint256[]"
        }
      ],
      "name": "TransferBatch",
      "type": "event"
    },
    {
      "anonymous": false,
      "inputs": [
        {
          "indexed": true,
          "internalType": "address",
          "name": "operator",
          "type": "address"
        },
        {
          "indexed": true,
          "internalType": "address",
          "name": "from",
          "type": "address"
        },
        {
          "indexed": true,
          "internalType": "address",
          "name": "to",
          "type": "address"
        },
        {
          "indexed": false,
          "internalType": "uint256",
          "name": "id",
          "type": "uint256"
        },
        {
          "indexed": false,
          "internalType": "uint256",
          "name": "value",
          "type": "uint256"
        }
      ],
      "name": "TransferSingle",
      "type": "event"
    },
    {
      "anonymous": false,
      "inputs": [
        {
          "indexed": false,
          "internalType": "string",
          "name": "value",
          "type": "string"
        },
        {
          "indexed": true,
          "internalType": "uint256",
          "name": "id",
          "type": "uint256"
        }
      ],
      "name": "URI",
      "type": "event"
    },
    {
      "anonymous": false,
      "inputs": [
        {
          "indexed": false,
          "internalType": "uint256",
          "name": "ticketId",
          "type": "uint256"
        }
      ],
      "name": "ticketMinted",
      "type": "event"
    },
    {
      "anonymous": false,
      "inputs": [
        {
          "indexed": false,
          "internalType": "uint256",
          "name": "ticketId",
          "type": "uint256"
        }
      ],
      "name": "ticketSet",
      "type": "event"
    },
    {
      "inputs": [
        {
          "internalType": "uint256",
          "name": "",
          "type": "uint256"
        }
      ],
      "name": "adminList",
      "outputs": [
        {
          "internalType": "address",
          "name": "",
          "type": "address"
        }
      ],
      "stateMutability": "view",
      "type": "function"
    },
    {
      "inputs": [
        {
          "internalType": "address",
          "name": "account",
          "type": "address"
        },
        {
          "internalType": "uint256",
          "name": "id",
          "type": "uint256"
        }
      ],
      "name": "balanceOf",
      "outputs": [
        {
          "internalType": "uint256",
          "name": "",
          "type": "uint256"
        }
      ],
      "stateMutability": "view",
      "type": "function"
    },
    {
      "inputs": [
        {
          "internalType": "address[]",
          "name": "accounts",
          "type": "address[]"
        },
        {
          "internalType": "uint256[]",
          "name": "ids",
          "type": "uint256[]"
        }
      ],
      "name": "balanceOfBatch",
      "outputs": [
        {
          "internalType": "uint256[]",
          "name": "",
          "type": "uint256[]"
        }
      ],
      "stateMutability": "view",
      "type": "function"
    },
    {
      "inputs": [],
      "name": "contractOwner",
      "outputs": [
        {
          "internalType": "address",
          "name": "",
          "type": "address"
        }
      ],
      "stateMutability": "view",
      "type": "function"
    },
    {
      "inputs": [
        {
          "internalType": "address",
          "name": "account",
          "type": "address"
        },
        {
          "internalType": "address",
          "name": "operator",
          "type": "address"
        }
      ],
      "name": "isApprovedForAll",
      "outputs": [
        {
          "internalType": "bool",
          "name": "",
          "type": "bool"
        }
      ],
      "stateMutability": "view",
      "type": "function"
    },
    {
      "inputs": [
        {
          "internalType": "uint256[]",
          "name": "_tokenIds",
          "type": "uint256[]"
        },
        {
          "internalType": "uint256[]",
          "name": "_amounts",
          "type": "uint256[]"
        }
      ],
      "name": "mintBatch",
      "outputs": [],
      "stateMutability": "nonpayable",
      "type": "function"
    },
    {
      "inputs": [
        {
          "internalType": "uint256",
          "name": "_ticketId",
          "type": "uint256"
        }
      ],
      "name": "mintTicket",
      "outputs": [],
      "stateMutability": "nonpayable",
      "type": "function"
    },
    {
      "inputs": [
        {
          "internalType": "address",
          "name": "from",
          "type": "address"
        },
        {
          "internalType": "address",
          "name": "to",
          "type": "address"
        },
        {
          "internalType": "uint256[]",
          "name": "ids",
          "type": "uint256[]"
        },
        {
          "internalType": "uint256[]",
          "name": "amounts",
          "type": "uint256[]"
        },
        {
          "internalType": "bytes",
          "name": "data",
          "type": "bytes"
        }
      ],
      "name": "safeBatchTransferFrom",
      "outputs": [],
      "stateMutability": "nonpayable",
      "type": "function"
    },
    {
      "inputs": [
        {
          "internalType": "address",
          "name": "from",
          "type": "address"
        },
        {
          "internalType": "address",
          "name": "to",
          "type": "address"
        },
        {
          "internalType": "uint256",
          "name": "id",
          "type": "uint256"
        },
        {
          "internalType": "uint256",
          "name": "amount",
          "type": "uint256"
        },
        {
          "internalType": "bytes",
          "name": "data",
          "type": "bytes"
        }
      ],
      "name": "safeTransferFrom",
      "outputs": [],
      "stateMutability": "nonpayable",
      "type": "function"
    },
    {
      "inputs": [],
      "name": "salesPaid",
      "outputs": [
        {
          "internalType": "uint256",
          "name": "",
          "type": "uint256"
        }
      ],
      "stateMutability": "view",
      "type": "function"
    },
    {
      "inputs": [
        {
          "internalType": "address",
          "name": "operator",
          "type": "address"
        },
        {
          "internalType": "bool",
          "name": "approved",
          "type": "bool"
        }
      ],
      "name": "setApprovalForAll",
      "outputs": [],
      "stateMutability": "nonpayable",
      "type": "function"
    },
    {
      "inputs": [
        {
          "internalType": "string",
          "name": "_prefix",
          "type": "string"
        },
        {
          "internalType": "string",
          "name": "_suffix",
          "type": "string"
        }
      ],
      "name": "setBaseMetadataURI",
      "outputs": [],
      "stateMutability": "nonpayable",
      "type": "function"
    },
    {
      "inputs": [
        {
          "internalType": "uint256",
          "name": "_ticketId",
          "type": "uint256"
        },
        {
          "internalType": "address",
          "name": "_logicAddress",
          "type": "address"
        }
      ],
      "name": "setOracleContract",
      "outputs": [],
      "stateMutability": "nonpayable",
      "type": "function"
    },
    {
      "inputs": [
        {
          "internalType": "uint256",
          "name": "_ticketId",
          "type": "uint256"
        },
        {
          "internalType": "address",
          "name": "_feeAddress",
          "type": "address"
        },
        {
          "internalType": "uint256",
          "name": "_feeAmount",
          "type": "uint256"
        },
        {
          "internalType": "uint256",
          "name": "_startTime",
          "type": "uint256"
        },
        {
          "internalType": "uint256",
          "name": "_endTime",
          "type": "uint256"
        },
        {
          "internalType": "uint256",
          "name": "_eventTime",
          "type": "uint256"
        },
        {
          "internalType": "uint256",
          "name": "_mintLimit",
          "type": "uint256"
        }
      ],
      "name": "setTicket",
      "outputs": [],
      "stateMutability": "nonpayable",
      "type": "function"
    },
    {
      "inputs": [
        {
          "internalType": "uint256",
          "name": "_ticketId",
          "type": "uint256"
        },
        {
          "internalType": "address",
          "name": "_feeAddress",
          "type": "address"
        },
        {
          "internalType": "uint256",
          "name": "_feeAmount",
          "type": "uint256"
        },
        {
          "internalType": "uint256",
          "name": "_startTime",
          "type": "uint256"
        },
        {
          "internalType": "uint256",
          "name": "_endTime",
          "type": "uint256"
        },
        {
          "internalType": "uint256",
          "name": "_eventTime",
          "type": "uint256"
        },
        {
          "internalType": "uint256",
          "name": "_mintLimit",
          "type": "uint256"
        },
        {
          "internalType": "address",
          "name": "_oracleAddress",
          "type": "address"
        }
      ],
      "name": "setTicket",
      "outputs": [],
      "stateMutability": "nonpayable",
      "type": "function"
    },
    {
      "inputs": [
        {
          "internalType": "bytes4",
          "name": "interfaceId",
          "type": "bytes4"
        }
      ],
      "name": "supportsInterface",
      "outputs": [
        {
          "internalType": "bool",
          "name": "",
          "type": "bool"
        }
      ],
      "stateMutability": "view",
      "type": "function"
    },
    {
      "inputs": [],
      "name": "ticketCount",
      "outputs": [
        {
          "internalType": "uint256",
          "name": "",
          "type": "uint256"
        }
      ],
      "stateMutability": "view",
      "type": "function"
    },
    {
      "inputs": [
        {
          "internalType": "uint256",
          "name": "",
          "type": "uint256"
        }
      ],
      "name": "ticketList",
      "outputs": [
        {
          "internalType": "address",
          "name": "feeAddress",
          "type": "address"
        },
        {
          "internalType": "uint256",
          "name": "feeAmount",
          "type": "uint256"
        },
        {
          "internalType": "uint256",
          "name": "startTime",
          "type": "uint256"
        },
        {
          "internalType": "uint256",
          "name": "endTime",
          "type": "uint256"
        },
        {
          "internalType": "uint256",
          "name": "eventTime",
          "type": "uint256"
        },
        {
          "internalType": "uint256",
          "name": "mintLimit",
          "type": "uint256"
        }
      ],
      "stateMutability": "view",
      "type": "function"
    },
    {
      "inputs": [
        {
          "internalType": "uint256",
          "name": "",
          "type": "uint256"
        }
      ],
      "name": "ticketOracleLogic",
      "outputs": [
        {
          "internalType": "address",
          "name": "",
          "type": "address"
        }
      ],
      "stateMutability": "view",
      "type": "function"
    },
    {
      "inputs": [
        {
          "internalType": "uint256",
          "name": "",
          "type": "uint256"
        }
      ],
      "name": "ticketSales",
      "outputs": [
        {
          "internalType": "uint256",
          "name": "",
          "type": "uint256"
        }
      ],
      "stateMutability": "view",
      "type": "function"
    },
    {
      "inputs": [
        {
          "internalType": "uint256",
          "name": "_ticketId",
          "type": "uint256"
        },
        {
          "internalType": "address",
          "name": "_feeAddress",
          "type": "address"
        },
        {
          "internalType": "uint256",
          "name": "_feeAmount",
          "type": "uint256"
        },
        {
          "internalType": "uint256",
          "name": "_startTime",
          "type": "uint256"
        },
        {
          "internalType": "uint256",
          "name": "_endTime",
          "type": "uint256"
        },
        {
          "internalType": "uint256",
          "name": "_eventTime",
          "type": "uint256"
        },
        {
          "internalType": "uint256",
          "name": "_mintLimit",
          "type": "uint256"
        }
      ],
      "name": "updateTicket",
      "outputs": [],
      "stateMutability": "nonpayable",
      "type": "function"
    },
    {
      "inputs": [
        {
          "internalType": "uint256",
          "name": "_ticketId",
          "type": "uint256"
        },
        {
          "internalType": "address",
          "name": "_newAdmin",
          "type": "address"
        }
      ],
      "name": "updateTicketAdmin",
      "outputs": [],
      "stateMutability": "nonpayable",
      "type": "function"
    },
    {
      "inputs": [
        {
          "internalType": "uint256",
          "name": "_id",
          "type": "uint256"
        }
      ],
      "name": "uri",
      "outputs": [
        {
          "internalType": "string",
          "name": "",
          "type": "string"
        }
      ],
      "stateMutability": "view",
      "type": "function"
    },
    {
      "inputs": [
        {
          "internalType": "uint256",
          "name": "_ticketId",
          "type": "uint256"
        }
      ],
      "name": "useTicket",
      "outputs": [],
      "stateMutability": "nonpayable",
      "type": "function"
    },
    {
      "inputs": [
        {
          "internalType": "uint256",
          "name": "_ticketId",
          "type": "uint256"
        },
        {
          "internalType": "uint256",
          "name": "_amount",
          "type": "uint256"
        }
      ],
      "name": "withdrawSales",
      "outputs": [],
      "stateMutability": "nonpayable",
      "type": "function"
    },
    {
      "inputs": [
        {
          "internalType": "address",
          "name": "_tokenAddress",
          "type": "address"
        },
        {
          "internalType": "uint256",
          "name": "_amount",
          "type": "uint256"
        }
      ],
      "name": "withdrawToken",
      "outputs": [],
      "stateMutability": "nonpayable",
      "type": "function"
    }
  ],
  "bytecode": "0x60806040523480156200001157600080fd5b50604051806020016040528060008152506200003381620000fd60201b60201c565b506040518060600160405280602681526020016200575560269139600a90816200005e91906200038c565b506040518060400160405280600581526020017f2e6a736f6e000000000000000000000000000000000000000000000000000000815250600b9081620000a591906200038c565b5033600360006101000a81548173ffffffffffffffffffffffffffffffffffffffff021916908373ffffffffffffffffffffffffffffffffffffffff160217905550605a600481905550600060058190555062000473565b80600290816200010e91906200038c565b5050565b600081519050919050565b7f4e487b7100000000000000000000000000000000000000000000000000000000600052604160045260246000fd5b7f4e487b7100000000000000000000000000000000000000000000000000000000600052602260045260246000fd5b600060028204905060018216806200019457607f821691505b602082108103620001aa57620001a96200014c565b5b50919050565b60008190508160005260206000209050919050565b60006020601f8301049050919050565b600082821b905092915050565b600060088302620002147fffffffffffffffffffffffffffffffffffffffffffffffffffffffffffffffff82620001d5565b620002208683620001d5565b95508019841693508086168417925050509392505050565b6000819050919050565b6000819050919050565b60006200026d62000267620002618462000238565b62000242565b62000238565b9050919050565b6000819050919050565b62000289836200024c565b620002a1620002988262000274565b848454620001e2565b825550505050565b600090565b620002b8620002a9565b620002c58184846200027e565b505050565b5b81811015620002ed57620002e1600082620002ae565b600181019050620002cb565b5050565b601f8211156200033c576200030681620001b0565b6200031184620001c5565b8101602085101562000321578190505b620003396200033085620001c5565b830182620002ca565b50505b505050565b600082821c905092915050565b6000620003616000198460080262000341565b1980831691505092915050565b60006200037c83836200034e565b9150826002028217905092915050565b620003978262000112565b67ffffffffffffffff811115620003b357620003b26200011d565b5b620003bf82546200017b565b620003cc828285620002f1565b600060209050601f831160018114620004045760008415620003ef578287015190505b620003fb85826200036e565b8655506200046b565b601f1984166200041486620001b0565b60005b828110156200043e5784890151825560018201915060208501945060208101905062000417565b868310156200045e57848901516200045a601f8916826200034e565b8355505b6001600288020188555050505b505050505050565b6152d280620004836000396000f3fe608060405234801561001057600080fd5b506004361061018d5760003560e01c80639a29057b116100de578063cfbd900f11610097578063e985e9c511610071578063e985e9c5146104a3578063f242432a146104d3578063fb42cc7b146104ef578063fbe186211461050d5761018d565b8063cfbd900f1461044d578063d351cfdc1461046b578063e1abcc96146104875761018d565b80639a29057b1461037b5780639c543d99146103ab5780639e281a98146103c7578063a07e7686146103e3578063a22cb46514610413578063ce606ee01461042f5761018d565b80632eb2c2d61161014b5780637991d9c5116101255780637991d9c51461030b578063880dfff6146103275780638b776fd51461034357806391d512f61461035f5761018d565b80632eb2c2d61461028a57806340756f33146102a65780634e1273f4146102db5761018d565b8062fdd58e1461019257806301ffc9a7146101c25780630e89341c146101f257806311117fc814610222578063256d52f614610252578063266064481461026e575b600080fd5b6101ac60048036038101906101a791906131c9565b610529565b6040516101b99190613218565b60405180910390f35b6101dc60048036038101906101d7919061328b565b6105f1565b6040516101e991906132d3565b60405180910390f35b61020c600480360381019061020791906132ee565b6106d3565b60405161021991906133ab565b60405180910390f35b61023c600480360381019061023791906132ee565b61070a565b60405161024991906133dc565b60405180910390f35b61026c600480360381019061026791906132ee565b61073d565b005b610288600480360381019061028391906132ee565b610a57565b005b6102a4600480360381019061029f91906135f4565b610cde565b005b6102c060048036038101906102bb91906132ee565b610d7f565b6040516102d2969594939291906136c3565b60405180910390f35b6102f560048036038101906102f091906137e7565b610ddb565b604051610302919061391d565b60405180910390f35b6103256004803603810190610320919061393f565b610ef4565b005b610341600480360381019061033c91906139e1565b6110a3565b005b61035d60048036038101906103589190613a21565b611164565b005b6103796004803603810190610374919061393f565b6113bd565b005b610395600480360381019061039091906132ee565b61158d565b6040516103a291906133dc565b60405180910390f35b6103c560048036038101906103c09190613a61565b6115c0565b005b6103e160048036038101906103dc91906131c9565b6117ad565b005b6103fd60048036038101906103f891906132ee565b6119c0565b60405161040a9190613218565b60405180910390f35b61042d60048036038101906104289190613b43565b6119d8565b005b6104376119ee565b60405161044491906133dc565b60405180910390f35b610455611a14565b6040516104629190613218565b60405180910390f35b61048560048036038101906104809190613b83565b611a1a565b005b6104a1600480360381019061049c91906139e1565b611ac9565b005b6104bd60048036038101906104b89190613bfb565b611b8a565b6040516104ca91906132d3565b60405180910390f35b6104ed60048036038101906104e89190613c3b565b611c1e565b005b6104f7611cbf565b6040516105049190613218565b60405180910390f35b61052760048036038101906105229190613d73565b611cc5565b005b60008073ffffffffffffffffffffffffffffffffffffffff168373ffffffffffffffffffffffffffffffffffffffff1603610599576040517f08c379a000000000000000000000000000000000000000000000000000000000815260040161059090613e5d565b60405180910390fd5b60008083815260200190815260200160002060008473ffffffffffffffffffffffffffffffffffffffff1673ffffffffffffffffffffffffffffffffffffffff16815260200190815260200160002054905092915050565b60007fd9b67a26000000000000000000000000000000000000000000000000000000007bffffffffffffffffffffffffffffffffffffffffffffffffffffffff1916827bffffffffffffffffffffffffffffffffffffffffffffffffffffffff191614806106bc57507f0e89341c000000000000000000000000000000000000000000000000000000007bffffffffffffffffffffffffffffffffffffffffffffffffffffffff1916827bffffffffffffffffffffffffffffffffffffffffffffffffffffffff1916145b806106cc57506106cb82611ce9565b5b9050919050565b6060600a6106e083611d53565b600b6040516020016106f493929190613fb1565b6040516020818303038152906040529050919050565b60076020528060005260406000206000915054906101000a900473ffffffffffffffffffffffffffffffffffffffff1681565b60066000828152602001908152602001600020600201544210158015610779575060066000828152602001908152602001600020600301544211155b6107b8576040517f08c379a00000000000000000000000000000000000000000000000000000000081526004016107af90614054565b60405180910390fd5b60006006600083815260200190815260200160002060000160009054906101000a900473ffffffffffffffffffffffffffffffffffffffff1690506000600660008481526020019081526020016000206001015490506000829050818173ffffffffffffffffffffffffffffffffffffffff166370a08231336040518263ffffffff1660e01b815260040161084d91906133dc565b602060405180830381865afa15801561086a573d6000803e3d6000fd5b505050506040513d601f19601f8201168201806040525081019061088e9190614089565b10156108cf576040517f08c379a00000000000000000000000000000000000000000000000000000000081526004016108c690614102565b60405180910390fd5b8073ffffffffffffffffffffffffffffffffffffffff166323b872dd3330856040518463ffffffff1660e01b815260040161090c93929190614122565b6020604051808303816000875af115801561092b573d6000803e3d6000fd5b505050506040513d601f19601f8201168201806040525081019061094f919061416e565b61098e576040517f08c379a0000000000000000000000000000000000000000000000000000000008152600401610985906141e7565b60405180910390fd5b6109aa3385600160405180602001604052806000815250611e21565b60006009600086815260200190815260200160002054905060006064600454856109d49190614236565b6109de91906142a7565b905080826109ec91906142d8565b60096000888152602001908152602001600020819055506001600554610a1291906142d8565b6005819055507fd6416390b3aea734bc31f5c68df7b2f3d72b2280730eb60ee5405877442eb2de86604051610a479190613218565b60405180910390a1505050505050565b610a6333826001611fd1565b610a8b33600183610a7491906142d8565b600160405180602001604052806000815250611e21565b600073ffffffffffffffffffffffffffffffffffffffff166008600083815260200190815260200160002060009054906101000a900473ffffffffffffffffffffffffffffffffffffffff1673ffffffffffffffffffffffffffffffffffffffff1614610cdb5760006006600083815260200190815260200160002060000160009054906101000a900473ffffffffffffffffffffffffffffffffffffffff16905060006006600084815260200190815260200160002060010154905060008290508073ffffffffffffffffffffffffffffffffffffffff1663095ea7b36008600087815260200190815260200160002060009054906101000a900473ffffffffffffffffffffffffffffffffffffffff16600a85610baa91906142a7565b6040518363ffffffff1660e01b8152600401610bc792919061430c565b6020604051808303816000875af1158015610be6573d6000803e3d6000fd5b505050506040513d601f19601f82011682018060405250810190610c0a919061416e565b5060006008600086815260200190815260200160002060009054906101000a900473ffffffffffffffffffffffffffffffffffffffff16905060008190508073ffffffffffffffffffffffffffffffffffffffff166359cb53cf8633601488610c7391906142a7565b6040518463ffffffff1660e01b8152600401610c9193929190614122565b6020604051808303816000875af1158015610cb0573d6000803e3d6000fd5b505050506040513d601f19601f82011682018060405250810190610cd4919061436b565b5050505050505b50565b610ce6612217565b73ffffffffffffffffffffffffffffffffffffffff168573ffffffffffffffffffffffffffffffffffffffff161480610d2c5750610d2b85610d26612217565b611b8a565b5b610d6b576040517f08c379a0000000000000000000000000000000000000000000000000000000008152600401610d629061440a565b60405180910390fd5b610d78858585858561221f565b5050505050565b60066020528060005260406000206000915090508060000160009054906101000a900473ffffffffffffffffffffffffffffffffffffffff16908060010154908060020154908060030154908060040154908060050154905086565b60608151835114610e21576040517f08c379a0000000000000000000000000000000000000000000000000000000008152600401610e189061449c565b60405180910390fd5b6000835167ffffffffffffffff811115610e3e57610e3d6133fc565b5b604051908082528060200260200182016040528015610e6c5781602001602082028036833780820191505090505b50905060005b8451811015610ee957610eb9858281518110610e9157610e906144bc565b5b6020026020010151858381518110610eac57610eab6144bc565b5b6020026020010151610529565b828281518110610ecc57610ecb6144bc565b5b60200260200101818152505080610ee2906144eb565b9050610e72565b508091505092915050565b856006600089815260200190815260200160002060000160006101000a81548173ffffffffffffffffffffffffffffffffffffffff021916908373ffffffffffffffffffffffffffffffffffffffff160217905550670de0b6b3a764000085610f5d9190614236565b6006600089815260200190815260200160002060010181905550836006600089815260200190815260200160002060020181905550826006600089815260200190815260200160002060030181905550816006600089815260200190815260200160002060040181905550806006600089815260200190815260200160002060050181905550336007600089815260200190815260200160002060006101000a81548173ffffffffffffffffffffffffffffffffffffffff021916908373ffffffffffffffffffffffffffffffffffffffff16021790555060006009600089815260200190815260200160002081905550600160055461105d91906142d8565b6005819055507fcd901b3de1e9cd4182c59f8dd11612de244ef02855d7b2e3aa5c9308ec8d676c876040516110929190613218565b60405180910390a150505050505050565b6007600083815260200190815260200160002060009054906101000a900473ffffffffffffffffffffffffffffffffffffffff1673ffffffffffffffffffffffffffffffffffffffff163373ffffffffffffffffffffffffffffffffffffffff161461110e57600080fd5b806008600084815260200190815260200160002060006101000a81548173ffffffffffffffffffffffffffffffffffffffff021916908373ffffffffffffffffffffffffffffffffffffffff1602179055505050565b6007600083815260200190815260200160002060009054906101000a900473ffffffffffffffffffffffffffffffffffffffff1673ffffffffffffffffffffffffffffffffffffffff163373ffffffffffffffffffffffffffffffffffffffff1614611205576040517f08c379a00000000000000000000000000000000000000000000000000000000081526004016111fc906145a5565b60405180910390fd5b806009600084815260200190815260200160002054101561125b576040517f08c379a000000000000000000000000000000000000000000000000000000000815260040161125290614611565b60405180910390fd5b60066000838152602001908152602001600020600401544210156112b4576040517f08c379a00000000000000000000000000000000000000000000000000000000081526004016112ab906146a3565b60405180910390fd5b60006006600084815260200190815260200160002060000160009054906101000a900473ffffffffffffffffffffffffffffffffffffffff169050600081905060008173ffffffffffffffffffffffffffffffffffffffff1663a9059cbb33866040518363ffffffff1660e01b815260040161133192919061430c565b6020604051808303816000875af1158015611350573d6000803e3d6000fd5b505050506040513d601f19601f82011682018060405250810190611374919061416e565b9050806113b6576040517f08c379a00000000000000000000000000000000000000000000000000000000081526004016113ad9061470f565b60405180910390fd5b5050505050565b6007600088815260200190815260200160002060009054906101000a900473ffffffffffffffffffffffffffffffffffffffff1673ffffffffffffffffffffffffffffffffffffffff163373ffffffffffffffffffffffffffffffffffffffff161461145e576040517f08c379a0000000000000000000000000000000000000000000000000000000008152600401611455906145a5565b60405180910390fd5b856006600089815260200190815260200160002060000160006101000a81548173ffffffffffffffffffffffffffffffffffffffff021916908373ffffffffffffffffffffffffffffffffffffffff160217905550670de0b6b3a7640000856114c79190614236565b60066000898152602001908152602001600020600101819055508360066000898152602001908152602001600020600201819055508260066000898152602001908152602001600020600301819055508160066000898152602001908152602001600020600401819055508060066000898152602001908152602001600020600501819055507fcd901b3de1e9cd4182c59f8dd11612de244ef02855d7b2e3aa5c9308ec8d676c8760405161157c9190613218565b60405180910390a150505050505050565b60086020528060005260406000206000915054906101000a900473ffffffffffffffffffffffffffffffffffffffff1681565b86600660008a815260200190815260200160002060000160006101000a81548173ffffffffffffffffffffffffffffffffffffffff021916908373ffffffffffffffffffffffffffffffffffffffff160217905550670de0b6b3a7640000866116299190614236565b600660008a81526020019081526020016000206001018190555084600660008a81526020019081526020016000206002018190555083600660008a81526020019081526020016000206003018190555082600660008a81526020019081526020016000206004018190555081600660008a81526020019081526020016000206005018190555033600760008a815260200190815260200160002060006101000a81548173ffffffffffffffffffffffffffffffffffffffff021916908373ffffffffffffffffffffffffffffffffffffffff1602179055506000600960008a81526020019081526020016000208190555080600860008a815260200190815260200160002060006101000a81548173ffffffffffffffffffffffffffffffffffffffff021916908373ffffffffffffffffffffffffffffffffffffffff1602179055507fcd901b3de1e9cd4182c59f8dd11612de244ef02855d7b2e3aa5c9308ec8d676c8860405161179b9190613218565b60405180910390a15050505050505050565b600360009054906101000a900473ffffffffffffffffffffffffffffffffffffffff1673ffffffffffffffffffffffffffffffffffffffff163373ffffffffffffffffffffffffffffffffffffffff161461183d576040517f08c379a00000000000000000000000000000000000000000000000000000000081526004016118349061477b565b60405180910390fd5b6000829050818173ffffffffffffffffffffffffffffffffffffffff166370a08231306040518263ffffffff1660e01b815260040161187c91906133dc565b602060405180830381865afa158015611899573d6000803e3d6000fd5b505050506040513d601f19601f820116820180604052508101906118bd9190614089565b10156118fe576040517f08c379a00000000000000000000000000000000000000000000000000000000081526004016118f590614611565b60405180910390fd5b8073ffffffffffffffffffffffffffffffffffffffff1663a9059cbb33846040518363ffffffff1660e01b815260040161193992919061430c565b6020604051808303816000875af1158015611958573d6000803e3d6000fd5b505050506040513d601f19601f8201168201806040525081019061197c919061416e565b6119bb576040517f08c379a00000000000000000000000000000000000000000000000000000000081526004016119b2906147e7565b60405180910390fd5b505050565b60096020528060005260406000206000915090505481565b6119ea6119e3612217565b8383612540565b5050565b600360009054906101000a900473ffffffffffffffffffffffffffffffffffffffff1681565b60055481565b600360009054906101000a900473ffffffffffffffffffffffffffffffffffffffff1673ffffffffffffffffffffffffffffffffffffffff163373ffffffffffffffffffffffffffffffffffffffff1614611aaa576040517f08c379a0000000000000000000000000000000000000000000000000000000008152600401611aa190614879565b60405180910390fd5b611ac5338383604051806020016040528060008152506126ac565b5050565b6007600083815260200190815260200160002060009054906101000a900473ffffffffffffffffffffffffffffffffffffffff1673ffffffffffffffffffffffffffffffffffffffff163373ffffffffffffffffffffffffffffffffffffffff1614611b3457600080fd5b806007600084815260200190815260200160002060006101000a81548173ffffffffffffffffffffffffffffffffffffffff021916908373ffffffffffffffffffffffffffffffffffffffff1602179055505050565b6000600160008473ffffffffffffffffffffffffffffffffffffffff1673ffffffffffffffffffffffffffffffffffffffff16815260200190815260200160002060008373ffffffffffffffffffffffffffffffffffffffff1673ffffffffffffffffffffffffffffffffffffffff16815260200190815260200160002060009054906101000a900460ff16905092915050565b611c26612217565b73ffffffffffffffffffffffffffffffffffffffff168573ffffffffffffffffffffffffffffffffffffffff161480611c6c5750611c6b85611c66612217565b611b8a565b5b611cab576040517f08c379a0000000000000000000000000000000000000000000000000000000008152600401611ca29061440a565b60405180910390fd5b611cb885858585856128d8565b5050505050565b60045481565b81600a9081611cd49190614a30565b5080600b9081611ce49190614a30565b505050565b60007f01ffc9a7000000000000000000000000000000000000000000000000000000007bffffffffffffffffffffffffffffffffffffffffffffffffffffffff1916827bffffffffffffffffffffffffffffffffffffffffffffffffffffffff1916149050919050565b606060006001611d6284612b73565b01905060008167ffffffffffffffff811115611d8157611d806133fc565b5b6040519080825280601f01601f191660200182016040528015611db35781602001600182028036833780820191505090505b509050600082602001820190505b600115611e16578080600190039150507f3031323334353637383961626364656600000000000000000000000000000000600a86061a8153600a8581611e0a57611e09614278565b5b04945060008503611dc1575b819350505050919050565b600073ffffffffffffffffffffffffffffffffffffffff168473ffffffffffffffffffffffffffffffffffffffff1603611e90576040517f08c379a0000000000000000000000000000000000000000000000000000000008152600401611e8790614b74565b60405180910390fd5b6000611e9a612217565b90506000611ea785612cc6565b90506000611eb485612cc6565b9050611ec583600089858589612d40565b8460008088815260200190815260200160002060008973ffffffffffffffffffffffffffffffffffffffff1673ffffffffffffffffffffffffffffffffffffffff1681526020019081526020016000206000828254611f2491906142d8565b925050819055508673ffffffffffffffffffffffffffffffffffffffff16600073ffffffffffffffffffffffffffffffffffffffff168473ffffffffffffffffffffffffffffffffffffffff167fc3d58168c5ae7397731d063d5bbf3d657854427343f4c083240f7aacaa2d0f628989604051611fa2929190614b94565b60405180910390a4611fb983600089858589612d48565b611fc883600089898989612d50565b50505050505050565b600073ffffffffffffffffffffffffffffffffffffffff168373ffffffffffffffffffffffffffffffffffffffff1603612040576040517f08c379a000000000000000000000000000000000000000000000000000000000815260040161203790614c2f565b60405180910390fd5b600061204a612217565b9050600061205784612cc6565b9050600061206484612cc6565b905061208483876000858560405180602001604052806000815250612d40565b600080600087815260200190815260200160002060008873ffffffffffffffffffffffffffffffffffffffff1673ffffffffffffffffffffffffffffffffffffffff1681526020019081526020016000205490508481101561211b576040517f08c379a000000000000000000000000000000000000000000000000000000000815260040161211290614cc1565b60405180910390fd5b84810360008088815260200190815260200160002060008973ffffffffffffffffffffffffffffffffffffffff1673ffffffffffffffffffffffffffffffffffffffff16815260200190815260200160002081905550600073ffffffffffffffffffffffffffffffffffffffff168773ffffffffffffffffffffffffffffffffffffffff168573ffffffffffffffffffffffffffffffffffffffff167fc3d58168c5ae7397731d063d5bbf3d657854427343f4c083240f7aacaa2d0f6289896040516121e8929190614b94565b60405180910390a461220e84886000868660405180602001604052806000815250612d48565b50505050505050565b600033905090565b8151835114612263576040517f08c379a000000000000000000000000000000000000000000000000000000000815260040161225a90614d53565b60405180910390fd5b600073ffffffffffffffffffffffffffffffffffffffff168473ffffffffffffffffffffffffffffffffffffffff16036122d2576040517f08c379a00000000000000000000000000000000000000000000000000000000081526004016122c990614de5565b60405180910390fd5b60006122dc612217565b90506122ec818787878787612d40565b60005b845181101561249d57600085828151811061230d5761230c6144bc565b5b60200260200101519050600085838151811061232c5761232b6144bc565b5b60200260200101519050600080600084815260200190815260200160002060008b73ffffffffffffffffffffffffffffffffffffffff1673ffffffffffffffffffffffffffffffffffffffff168152602001908152602001600020549050818110156123cd576040517f08c379a00000000000000000000000000000000000000000000000000000000081526004016123c490614e77565b60405180910390fd5b81810360008085815260200190815260200160002060008c73ffffffffffffffffffffffffffffffffffffffff1673ffffffffffffffffffffffffffffffffffffffff168152602001908152602001600020819055508160008085815260200190815260200160002060008b73ffffffffffffffffffffffffffffffffffffffff1673ffffffffffffffffffffffffffffffffffffffff168152602001908152602001600020600082825461248291906142d8565b9250508190555050505080612496906144eb565b90506122ef565b508473ffffffffffffffffffffffffffffffffffffffff168673ffffffffffffffffffffffffffffffffffffffff168273ffffffffffffffffffffffffffffffffffffffff167f4a39dc06d4c0dbc64b70af90fd698a233a518aa5d07e595d983b8c0526c8f7fb8787604051612514929190614e97565b60405180910390a461252a818787878787612d48565b612538818787878787612f27565b505050505050565b8173ffffffffffffffffffffffffffffffffffffffff168373ffffffffffffffffffffffffffffffffffffffff16036125ae576040517f08c379a00000000000000000000000000000000000000000000000000000000081526004016125a590614f40565b60405180910390fd5b80600160008573ffffffffffffffffffffffffffffffffffffffff1673ffffffffffffffffffffffffffffffffffffffff16815260200190815260200160002060008473ffffffffffffffffffffffffffffffffffffffff1673ffffffffffffffffffffffffffffffffffffffff16815260200190815260200160002060006101000a81548160ff0219169083151502179055508173ffffffffffffffffffffffffffffffffffffffff168373ffffffffffffffffffffffffffffffffffffffff167f17307eab39ab6107e8899845ad3d59bd9653f200f220920489ca2b5937696c318360405161269f91906132d3565b60405180910390a3505050565b600073ffffffffffffffffffffffffffffffffffffffff168473ffffffffffffffffffffffffffffffffffffffff160361271b576040517f08c379a000000000000000000000000000000000000000000000000000000000815260040161271290614b74565b60405180910390fd5b815183511461275f576040517f08c379a000000000000000000000000000000000000000000000000000000000815260040161275690614d53565b60405180910390fd5b6000612769612217565b905061277a81600087878787612d40565b60005b845181101561283357838181518110612799576127986144bc565b5b60200260200101516000808784815181106127b7576127b66144bc565b5b6020026020010151815260200190815260200160002060008873ffffffffffffffffffffffffffffffffffffffff1673ffffffffffffffffffffffffffffffffffffffff168152602001908152602001600020600082825461281991906142d8565b92505081905550808061282b906144eb565b91505061277d565b508473ffffffffffffffffffffffffffffffffffffffff16600073ffffffffffffffffffffffffffffffffffffffff168273ffffffffffffffffffffffffffffffffffffffff167f4a39dc06d4c0dbc64b70af90fd698a233a518aa5d07e595d983b8c0526c8f7fb87876040516128ab929190614e97565b60405180910390a46128c281600087878787612d48565b6128d181600087878787612f27565b5050505050565b600073ffffffffffffffffffffffffffffffffffffffff168473ffffffffffffffffffffffffffffffffffffffff1603612947576040517f08c379a000000000000000000000000000000000000000000000000000000000815260040161293e90614de5565b60405180910390fd5b6000612951612217565b9050600061295e85612cc6565b9050600061296b85612cc6565b905061297b838989858589612d40565b600080600088815260200190815260200160002060008a73ffffffffffffffffffffffffffffffffffffffff1673ffffffffffffffffffffffffffffffffffffffff16815260200190815260200160002054905085811015612a12576040517f08c379a0000000000000000000000000000000000000000000000000000000008152600401612a0990614e77565b60405180910390fd5b85810360008089815260200190815260200160002060008b73ffffffffffffffffffffffffffffffffffffffff1673ffffffffffffffffffffffffffffffffffffffff168152602001908152602001600020819055508560008089815260200190815260200160002060008a73ffffffffffffffffffffffffffffffffffffffff1673ffffffffffffffffffffffffffffffffffffffff1681526020019081526020016000206000828254612ac791906142d8565b925050819055508773ffffffffffffffffffffffffffffffffffffffff168973ffffffffffffffffffffffffffffffffffffffff168573ffffffffffffffffffffffffffffffffffffffff167fc3d58168c5ae7397731d063d5bbf3d657854427343f4c083240f7aacaa2d0f628a8a604051612b44929190614b94565b60405180910390a4612b5a848a8a86868a612d48565b612b68848a8a8a8a8a612d50565b505050505050505050565b600080600090507a184f03e93ff9f4daa797ed6e38ed64bf6a1f0100000000000000008310612bd1577a184f03e93ff9f4daa797ed6e38ed64bf6a1f0100000000000000008381612bc757612bc6614278565b5b0492506040810190505b6d04ee2d6d415b85acef81000000008310612c0e576d04ee2d6d415b85acef81000000008381612c0457612c03614278565b5b0492506020810190505b662386f26fc100008310612c3d57662386f26fc100008381612c3357612c32614278565b5b0492506010810190505b6305f5e1008310612c66576305f5e1008381612c5c57612c5b614278565b5b0492506008810190505b6127108310612c8b576127108381612c8157612c80614278565b5b0492506004810190505b60648310612cae5760648381612ca457612ca3614278565b5b0492506002810190505b600a8310612cbd576001810190505b80915050919050565b60606000600167ffffffffffffffff811115612ce557612ce46133fc565b5b604051908082528060200260200182016040528015612d135781602001602082028036833780820191505090505b5090508281600081518110612d2b57612d2a6144bc565b5b60200260200101818152505080915050919050565b505050505050565b505050505050565b612d6f8473ffffffffffffffffffffffffffffffffffffffff166130fe565b15612f1f578373ffffffffffffffffffffffffffffffffffffffff1663f23a6e6187878686866040518663ffffffff1660e01b8152600401612db5959493929190614fb5565b6020604051808303816000875af1925050508015612df157506040513d601f19601f82011682018060405250810190612dee9190615024565b60015b612e9657612dfd61505e565b806308c379a003612e595750612e11615080565b80612e1c5750612e5b565b806040517f08c379a0000000000000000000000000000000000000000000000000000000008152600401612e5091906133ab565b60405180910390fd5b505b6040517f08c379a0000000000000000000000000000000000000000000000000000000008152600401612e8d90615182565b60405180910390fd5b63f23a6e6160e01b7bffffffffffffffffffffffffffffffffffffffffffffffffffffffff1916817bffffffffffffffffffffffffffffffffffffffffffffffffffffffff191614612f1d576040517f08c379a0000000000000000000000000000000000000000000000000000000008152600401612f1490615214565b60405180910390fd5b505b505050505050565b612f468473ffffffffffffffffffffffffffffffffffffffff166130fe565b156130f6578373ffffffffffffffffffffffffffffffffffffffff1663bc197c8187878686866040518663ffffffff1660e01b8152600401612f8c959493929190615234565b6020604051808303816000875af1925050508015612fc857506040513d601f19601f82011682018060405250810190612fc59190615024565b60015b61306d57612fd461505e565b806308c379a0036130305750612fe8615080565b80612ff35750613032565b806040517f08c379a000000000000000000000000000000000000000000000000000000000815260040161302791906133ab565b60405180910390fd5b505b6040517f08c379a000000000000000000000000000000000000000000000000000000000815260040161306490615182565b60405180910390fd5b63bc197c8160e01b7bffffffffffffffffffffffffffffffffffffffffffffffffffffffff1916817bffffffffffffffffffffffffffffffffffffffffffffffffffffffff1916146130f4576040517f08c379a00000000000000000000000000000000000000000000000000000000081526004016130eb90615214565b60405180910390fd5b505b505050505050565b6000808273ffffffffffffffffffffffffffffffffffffffff163b119050919050565b6000604051905090565b600080fd5b600080fd5b600073ffffffffffffffffffffffffffffffffffffffff82169050919050565b600061316082613135565b9050919050565b61317081613155565b811461317b57600080fd5b50565b60008135905061318d81613167565b92915050565b6000819050919050565b6131a681613193565b81146131b157600080fd5b50565b6000813590506131c38161319d565b92915050565b600080604083850312156131e0576131df61312b565b5b60006131ee8582860161317e565b92505060206131ff858286016131b4565b9150509250929050565b61321281613193565b82525050565b600060208201905061322d6000830184613209565b92915050565b60007fffffffff0000000000000000000000000000000000000000000000000000000082169050919050565b61326881613233565b811461327357600080fd5b50565b6000813590506132858161325f565b92915050565b6000602082840312156132a1576132a061312b565b5b60006132af84828501613276565b91505092915050565b60008115159050919050565b6132cd816132b8565b82525050565b60006020820190506132e860008301846132c4565b92915050565b6000602082840312156133045761330361312b565b5b6000613312848285016131b4565b91505092915050565b600081519050919050565b600082825260208201905092915050565b60005b8381101561335557808201518184015260208101905061333a565b60008484015250505050565b6000601f19601f8301169050919050565b600061337d8261331b565b6133878185613326565b9350613397818560208601613337565b6133a081613361565b840191505092915050565b600060208201905081810360008301526133c58184613372565b905092915050565b6133d681613155565b82525050565b60006020820190506133f160008301846133cd565b92915050565b600080fd5b7f4e487b7100000000000000000000000000000000000000000000000000000000600052604160045260246000fd5b61343482613361565b810181811067ffffffffffffffff82111715613453576134526133fc565b5b80604052505050565b6000613466613121565b9050613472828261342b565b919050565b600067ffffffffffffffff821115613492576134916133fc565b5b602082029050602081019050919050565b600080fd5b60006134bb6134b684613477565b61345c565b905080838252602082019050602084028301858111156134de576134dd6134a3565b5b835b8181101561350757806134f388826131b4565b8452602084019350506020810190506134e0565b5050509392505050565b600082601f830112613526576135256133f7565b5b81356135368482602086016134a8565b91505092915050565b600080fd5b600067ffffffffffffffff82111561355f5761355e6133fc565b5b61356882613361565b9050602081019050919050565b82818337600083830152505050565b600061359761359284613544565b61345c565b9050828152602081018484840111156135b3576135b261353f565b5b6135be848285613575565b509392505050565b600082601f8301126135db576135da6133f7565b5b81356135eb848260208601613584565b91505092915050565b600080600080600060a086880312156136105761360f61312b565b5b600061361e8882890161317e565b955050602061362f8882890161317e565b945050604086013567ffffffffffffffff8111156136505761364f613130565b5b61365c88828901613511565b935050606086013567ffffffffffffffff81111561367d5761367c613130565b5b61368988828901613511565b925050608086013567ffffffffffffffff8111156136aa576136a9613130565b5b6136b6888289016135c6565b9150509295509295909350565b600060c0820190506136d860008301896133cd565b6136e56020830188613209565b6136f26040830187613209565b6136ff6060830186613209565b61370c6080830185613209565b61371960a0830184613209565b979650505050505050565b600067ffffffffffffffff82111561373f5761373e6133fc565b5b602082029050602081019050919050565b600061376361375e84613724565b61345c565b90508083825260208201905060208402830185811115613786576137856134a3565b5b835b818110156137af578061379b888261317e565b845260208401935050602081019050613788565b5050509392505050565b600082601f8301126137ce576137cd6133f7565b5b81356137de848260208601613750565b91505092915050565b600080604083850312156137fe576137fd61312b565b5b600083013567ffffffffffffffff81111561381c5761381b613130565b5b613828858286016137b9565b925050602083013567ffffffffffffffff81111561384957613848613130565b5b61385585828601613511565b9150509250929050565b600081519050919050565b600082825260208201905092915050565b6000819050602082019050919050565b61389481613193565b82525050565b60006138a6838361388b565b60208301905092915050565b6000602082019050919050565b60006138ca8261385f565b6138d4818561386a565b93506138df8361387b565b8060005b838110156139105781516138f7888261389a565b9750613902836138b2565b9250506001810190506138e3565b5085935050505092915050565b6000602082019050818103600083015261393781846138bf565b905092915050565b600080600080600080600060e0888a03121561395e5761395d61312b565b5b600061396c8a828b016131b4565b975050602061397d8a828b0161317e565b965050604061398e8a828b016131b4565b955050606061399f8a828b016131b4565b94505060806139b08a828b016131b4565b93505060a06139c18a828b016131b4565b92505060c06139d28a828b016131b4565b91505092959891949750929550565b600080604083850312156139f8576139f761312b565b5b6000613a06858286016131b4565b9250506020613a178582860161317e565b9150509250929050565b60008060408385031215613a3857613a3761312b565b5b6000613a46858286016131b4565b9250506020613a57858286016131b4565b9150509250929050565b600080600080600080600080610100898b031215613a8257613a8161312b565b5b6000613a908b828c016131b4565b9850506020613aa18b828c0161317e565b9750506040613ab28b828c016131b4565b9650506060613ac38b828c016131b4565b9550506080613ad48b828c016131b4565b94505060a0613ae58b828c016131b4565b93505060c0613af68b828c016131b4565b92505060e0613b078b828c0161317e565b9150509295985092959890939650565b613b20816132b8565b8114613b2b57600080fd5b50565b600081359050613b3d81613b17565b92915050565b60008060408385031215613b5a57613b5961312b565b5b6000613b688582860161317e565b9250506020613b7985828601613b2e565b9150509250929050565b60008060408385031215613b9a57613b9961312b565b5b600083013567ffffffffffffffff811115613bb857613bb7613130565b5b613bc485828601613511565b925050602083013567ffffffffffffffff811115613be557613be4613130565b5b613bf185828601613511565b9150509250929050565b60008060408385031215613c1257613c1161312b565b5b6000613c208582860161317e565b9250506020613c318582860161317e565b9150509250929050565b600080600080600060a08688031215613c5757613c5661312b565b5b6000613c658882890161317e565b9550506020613c768882890161317e565b9450506040613c87888289016131b4565b9350506060613c98888289016131b4565b925050608086013567ffffffffffffffff811115613cb957613cb8613130565b5b613cc5888289016135c6565b9150509295509295909350565b600067ffffffffffffffff821115613ced57613cec6133fc565b5b613cf682613361565b9050602081019050919050565b6000613d16613d1184613cd2565b61345c565b905082815260208101848484011115613d3257613d3161353f565b5b613d3d848285613575565b509392505050565b600082601f830112613d5a57613d596133f7565b5b8135613d6a848260208601613d03565b91505092915050565b60008060408385031215613d8a57613d8961312b565b5b600083013567ffffffffffffffff811115613da857613da7613130565b5b613db485828601613d45565b925050602083013567ffffffffffffffff811115613dd557613dd4613130565b5b613de185828601613d45565b9150509250929050565b7f455243313135353a2061646472657373207a65726f206973206e6f742061207660008201527f616c6964206f776e657200000000000000000000000000000000000000000000602082015250565b6000613e47602a83613326565b9150613e5282613deb565b604082019050919050565b60006020820190508181036000830152613e7681613e3a565b9050919050565b7f4e487b7100000000000000000000000000000000000000000000000000000000600052602260045260246000fd5b60006002820490506001821680613ec457607f821691505b602082108103613ed757613ed6613e7d565b5b50919050565b600081905092915050565b60008190508160005260206000209050919050565b60008154613f0a81613eac565b613f148186613edd565b94506001821660008114613f2f5760018114613f4457613f77565b60ff1983168652811515820286019350613f77565b613f4d85613ee8565b60005b83811015613f6f57815481890152600182019150602081019050613f50565b838801955050505b50505092915050565b6000613f8b8261331b565b613f958185613edd565b9350613fa5818560208601613337565b80840191505092915050565b6000613fbd8286613efd565b9150613fc98285613f80565b9150613fd58284613efd565b9150819050949350505050565b7f596f752063616e2774206d696e742074686973207469636b657420286e6f742060008201527f6163746976652900000000000000000000000000000000000000000000000000602082015250565b600061403e602783613326565b915061404982613fe2565b604082019050919050565b6000602082019050818103600083015261406d81614031565b9050919050565b6000815190506140838161319d565b92915050565b60006020828403121561409f5761409e61312b565b5b60006140ad84828501614074565b91505092915050565b7f496e73756666696369656e7420746f6b656e2062616c616e63652e0000000000600082015250565b60006140ec601b83613326565b91506140f7826140b6565b602082019050919050565b6000602082019050818103600083015261411b816140df565b9050919050565b600060608201905061413760008301866133cd565b61414460208301856133cd565b6141516040830184613209565b949350505050565b60008151905061416881613b17565b92915050565b6000602082840312156141845761418361312b565b5b600061419284828501614159565b91505092915050565b7f666565207472616e73666572206661696c65642e000000000000000000000000600082015250565b60006141d1601483613326565b91506141dc8261419b565b602082019050919050565b60006020820190508181036000830152614200816141c4565b9050919050565b7f4e487b7100000000000000000000000000000000000000000000000000000000600052601160045260246000fd5b600061424182613193565b915061424c83613193565b925082820261425a81613193565b9150828204841483151761427157614270614207565b5b5092915050565b7f4e487b7100000000000000000000000000000000000000000000000000000000600052601260045260246000fd5b60006142b282613193565b91506142bd83613193565b9250826142cd576142cc614278565b5b828204905092915050565b60006142e382613193565b91506142ee83613193565b925082820190508082111561430657614305614207565b5b92915050565b600060408201905061432160008301856133cd565b61432e6020830184613209565b9392505050565b6000819050919050565b61434881614335565b811461435357600080fd5b50565b6000815190506143658161433f565b92915050565b6000602082840312156143815761438061312b565b5b600061438f84828501614356565b91505092915050565b7f455243313135353a2063616c6c6572206973206e6f7420746f6b656e206f776e60008201527f6572206f7220617070726f766564000000000000000000000000000000000000602082015250565b60006143f4602e83613326565b91506143ff82614398565b604082019050919050565b60006020820190508181036000830152614423816143e7565b9050919050565b7f455243313135353a206163636f756e747320616e6420696473206c656e67746860008201527f206d69736d617463680000000000000000000000000000000000000000000000602082015250565b6000614486602983613326565b91506144918261442a565b604082019050919050565b600060208201905081810360008301526144b581614479565b9050919050565b7f4e487b7100000000000000000000000000000000000000000000000000000000600052603260045260246000fd5b60006144f682613193565b91507fffffffffffffffffffffffffffffffffffffffffffffffffffffffffffffffff820361452857614527614207565b5b600182019050919050565b7f596f752063616e27742077697468647261772073616c65732028556e6175746860008201527f6f72697a65642900000000000000000000000000000000000000000000000000602082015250565b600061458f602783613326565b915061459a82614533565b604082019050919050565b600060208201905081810360008301526145be81614582565b9050919050565b7f496e73756666696369656e742073616c65732062616c616e6365000000000000600082015250565b60006145fb601a83613326565b9150614606826145c5565b602082019050919050565b6000602082019050818103600083015261462a816145ee565b9050919050565b7f596f752063616e27742077697468647261772073616c6573207965742028657660008201527f656e74206e6f7420737461727429000000000000000000000000000000000000602082015250565b600061468d602e83613326565b915061469882614631565b604082019050919050565b600060208201905081810360008301526146bc81614680565b9050919050565b7f546f6b656e207472616e73666572206661696c65640000000000000000000000600082015250565b60006146f9601583613326565b9150614704826146c3565b602082019050919050565b60006020820190508181036000830152614728816146ec565b9050919050565b7f43616c6c6572206973206e6f7420746865206f776e65722e0000000000000000600082015250565b6000614765601883613326565b91506147708261472f565b602082019050919050565b6000602082019050818103600083015261479481614758565b9050919050565b7f556e61626c652077697468647261770000000000000000000000000000000000600082015250565b60006147d1600f83613326565b91506147dc8261479b565b602082019050919050565b60006020820190508181036000830152614800816147c4565b9050919050565b7f796f7520646f6e277420686176652061207065726d697373696f6e202845727260008201527f6f72203a20343033290000000000000000000000000000000000000000000000602082015250565b6000614863602983613326565b915061486e82614807565b604082019050919050565b6000602082019050818103600083015261489281614856565b9050919050565b60006020601f8301049050919050565b600082821b905092915050565b6000600883026148e67fffffffffffffffffffffffffffffffffffffffffffffffffffffffffffffffff826148a9565b6148f086836148a9565b95508019841693508086168417925050509392505050565b6000819050919050565b600061492d61492861492384613193565b614908565b613193565b9050919050565b6000819050919050565b61494783614912565b61495b61495382614934565b8484546148b6565b825550505050565b600090565b614970614963565b61497b81848461493e565b505050565b5b8181101561499f57614994600082614968565b600181019050614981565b5050565b601f8211156149e4576149b581613ee8565b6149be84614899565b810160208510156149cd578190505b6149e16149d985614899565b830182614980565b50505b505050565b600082821c905092915050565b6000614a07600019846008026149e9565b1980831691505092915050565b6000614a2083836149f6565b9150826002028217905092915050565b614a398261331b565b67ffffffffffffffff811115614a5257614a516133fc565b5b614a5c8254613eac565b614a678282856149a3565b600060209050601f831160018114614a9a5760008415614a88578287015190505b614a928582614a14565b865550614afa565b601f198416614aa886613ee8565b60005b82811015614ad057848901518255600182019150602085019450602081019050614aab565b86831015614aed5784890151614ae9601f8916826149f6565b8355505b6001600288020188555050505b505050505050565b7f455243313135353a206d696e7420746f20746865207a65726f2061646472657360008201527f7300000000000000000000000000000000000000000000000000000000000000602082015250565b6000614b5e602183613326565b9150614b6982614b02565b604082019050919050565b60006020820190508181036000830152614b8d81614b51565b9050919050565b6000604082019050614ba96000830185613209565b614bb66020830184613209565b9392505050565b7f455243313135353a206275726e2066726f6d20746865207a65726f206164647260008201527f6573730000000000000000000000000000000000000000000000000000000000602082015250565b6000614c19602383613326565b9150614c2482614bbd565b604082019050919050565b60006020820190508181036000830152614c4881614c0c565b9050919050565b7f455243313135353a206275726e20616d6f756e7420657863656564732062616c60008201527f616e636500000000000000000000000000000000000000000000000000000000602082015250565b6000614cab602483613326565b9150614cb682614c4f565b604082019050919050565b60006020820190508181036000830152614cda81614c9e565b9050919050565b7f455243313135353a2069647320616e6420616d6f756e7473206c656e6774682060008201527f6d69736d61746368000000000000000000000000000000000000000000000000602082015250565b6000614d3d602883613326565b9150614d4882614ce1565b604082019050919050565b60006020820190508181036000830152614d6c81614d30565b9050919050565b7f455243313135353a207472616e7366657220746f20746865207a65726f20616460008201527f6472657373000000000000000000000000000000000000000000000000000000602082015250565b6000614dcf602583613326565b9150614dda82614d73565b604082019050919050565b60006020820190508181036000830152614dfe81614dc2565b9050919050565b7f455243313135353a20696e73756666696369656e742062616c616e636520666f60008201527f72207472616e7366657200000000000000000000000000000000000000000000602082015250565b6000614e61602a83613326565b9150614e6c82614e05565b604082019050919050565b60006020820190508181036000830152614e9081614e54565b9050919050565b60006040820190508181036000830152614eb181856138bf565b90508181036020830152614ec581846138bf565b90509392505050565b7f455243313135353a2073657474696e6720617070726f76616c2073746174757360008201527f20666f722073656c660000000000000000000000000000000000000000000000602082015250565b6000614f2a602983613326565b9150614f3582614ece565b604082019050919050565b60006020820190508181036000830152614f5981614f1d565b9050919050565b600081519050919050565b600082825260208201905092915050565b6000614f8782614f60565b614f918185614f6b565b9350614fa1818560208601613337565b614faa81613361565b840191505092915050565b600060a082019050614fca60008301886133cd565b614fd760208301876133cd565b614fe46040830186613209565b614ff16060830185613209565b81810360808301526150038184614f7c565b90509695505050505050565b60008151905061501e8161325f565b92915050565b60006020828403121561503a5761503961312b565b5b60006150488482850161500f565b91505092915050565b60008160e01c9050919050565b600060033d111561507d5760046000803e61507a600051615051565b90505b90565b600060443d1061510d57615092613121565b60043d036004823e80513d602482011167ffffffffffffffff821117156150ba57505061510d565b808201805167ffffffffffffffff8111156150d8575050505061510d565b80602083010160043d0385018111156150f557505050505061510d565b6151048260200185018661342b565b82955050505050505b90565b7f455243313135353a207472616e7366657220746f206e6f6e2d4552433131353560008201527f526563656976657220696d706c656d656e746572000000000000000000000000602082015250565b600061516c603483613326565b915061517782615110565b604082019050919050565b6000602082019050818103600083015261519b8161515f565b9050919050565b7f455243313135353a204552433131353552656365697665722072656a6563746560008201527f6420746f6b656e73000000000000000000000000000000000000000000000000602082015250565b60006151fe602883613326565b9150615209826151a2565b604082019050919050565b6000602082019050818103600083015261522d816151f1565b9050919050565b600060a08201905061524960008301886133cd565b61525660208301876133cd565b818103604083015261526881866138bf565b9050818103606083015261527c81856138bf565b905081810360808301526152908184614f7c565b9050969550505050505056fea264697066735822122039366da5cbfd94dadbb159b4ec14cd0d84e573f74bf8399084dcb08fe9a2f6fe64736f6c6343000811003368747470733a2f2f64616f2d6f72672e346174747261656d2e636f6d2f6d657461646174612f",
  "linkReferences": {},
  "deployedLinkReferences": {}
}