{
  "_format": "hh-sol-artifact-1",
  "contractName": "TicketErc1155",
  "sourceName": "contracts/TicketErc1155.sol",
  "abi": [
    {
      "inputs": [],
      "stateMutability": "nonpayable",
      "type": "constructor"
    },
    {
      "anonymous": false,
      "inputs": [
        {
          "indexed": true,
          "internalType": "address",
          "name": "account",
          "type": "address"
        },
        {
          "indexed": true,
          "internalType": "address",
          "name": "operator",
          "type": "address"
        },
        {
          "indexed": false,
          "internalType": "bool",
          "name": "approved",
          "type": "bool"
        }
      ],
      "name": "ApprovalForAll",
      "type": "event"
    },
    {
      "anonymous": false,
      "inputs": [
        {
          "indexed": true,
          "internalType": "address",
          "name": "operator",
          "type": "address"
        },
        {
          "indexed": true,
          "internalType": "address",
          "name": "from",
          "type": "address"
        },
        {
          "indexed": true,
          "internalType": "address",
          "name": "to",
          "type": "address"
        },
        {
          "indexed": false,
          "internalType": "uint256[]",
          "name": "ids",
          "type": "uint256[]"
        },
        {
          "indexed": false,
          "internalType": "uint256[]",
          "name": "values",
          "type": "uint256[]"
        }
      ],
      "name": "TransferBatch",
      "type": "event"
    },
    {
      "anonymous": false,
      "inputs": [
        {
          "indexed": true,
          "internalType": "address",
          "name": "operator",
          "type": "address"
        },
        {
          "indexed": true,
          "internalType": "address",
          "name": "from",
          "type": "address"
        },
        {
          "indexed": true,
          "internalType": "address",
          "name": "to",
          "type": "address"
        },
        {
          "indexed": false,
          "internalType": "uint256",
          "name": "id",
          "type": "uint256"
        },
        {
          "indexed": false,
          "internalType": "uint256",
          "name": "value",
          "type": "uint256"
        }
      ],
      "name": "TransferSingle",
      "type": "event"
    },
    {
      "anonymous": false,
      "inputs": [
        {
          "indexed": false,
          "internalType": "string",
          "name": "value",
          "type": "string"
        },
        {
          "indexed": true,
          "internalType": "uint256",
          "name": "id",
          "type": "uint256"
        }
      ],
      "name": "URI",
      "type": "event"
    },
    {
      "anonymous": false,
      "inputs": [
        {
          "indexed": false,
          "internalType": "uint256",
          "name": "ticketId",
          "type": "uint256"
        }
      ],
      "name": "ticketMinted",
      "type": "event"
    },
    {
      "anonymous": false,
      "inputs": [
        {
          "indexed": false,
          "internalType": "uint256",
          "name": "ticketId",
          "type": "uint256"
        },
        {
          "indexed": false,
          "internalType": "string",
          "name": "metadata",
          "type": "string"
        },
        {
          "indexed": false,
          "internalType": "address",
          "name": "admin",
          "type": "address"
        },
        {
          "indexed": false,
          "internalType": "address",
          "name": "feeAddress",
          "type": "address"
        },
        {
          "indexed": false,
          "internalType": "uint256",
          "name": "feeAmount",
          "type": "uint256"
        },
        {
          "indexed": false,
          "internalType": "uint256",
          "name": "startTime",
          "type": "uint256"
        },
        {
          "indexed": false,
          "internalType": "uint256",
          "name": "endTime",
          "type": "uint256"
        },
        {
          "indexed": false,
          "internalType": "uint256",
          "name": "eventTime",
          "type": "uint256"
        },
        {
          "indexed": false,
          "internalType": "uint256",
          "name": "mintLimit",
          "type": "uint256"
        }
      ],
      "name": "ticketSet",
      "type": "event"
    },
    {
      "anonymous": false,
      "inputs": [
        {
          "indexed": false,
          "internalType": "uint256",
          "name": "ticketId",
          "type": "uint256"
        },
        {
          "indexed": false,
          "internalType": "uint256",
          "name": "salesPaid",
          "type": "uint256"
        }
      ],
      "name": "ticketWithdraw",
      "type": "event"
    },
    {
      "inputs": [
        {
          "internalType": "uint256",
          "name": "",
          "type": "uint256"
        }
      ],
      "name": "adminList",
      "outputs": [
        {
          "internalType": "address",
          "name": "",
          "type": "address"
        }
      ],
      "stateMutability": "view",
      "type": "function"
    },
    {
      "inputs": [
        {
          "internalType": "address",
          "name": "account",
          "type": "address"
        },
        {
          "internalType": "uint256",
          "name": "id",
          "type": "uint256"
        }
      ],
      "name": "balanceOf",
      "outputs": [
        {
          "internalType": "uint256",
          "name": "",
          "type": "uint256"
        }
      ],
      "stateMutability": "view",
      "type": "function"
    },
    {
      "inputs": [
        {
          "internalType": "address[]",
          "name": "accounts",
          "type": "address[]"
        },
        {
          "internalType": "uint256[]",
          "name": "ids",
          "type": "uint256[]"
        }
      ],
      "name": "balanceOfBatch",
      "outputs": [
        {
          "internalType": "uint256[]",
          "name": "",
          "type": "uint256[]"
        }
      ],
      "stateMutability": "view",
      "type": "function"
    },
    {
      "inputs": [],
      "name": "contractOwner",
      "outputs": [
        {
          "internalType": "address",
          "name": "",
          "type": "address"
        }
      ],
      "stateMutability": "view",
      "type": "function"
    },
    {
      "inputs": [
        {
          "internalType": "address",
          "name": "account",
          "type": "address"
        },
        {
          "internalType": "address",
          "name": "operator",
          "type": "address"
        }
      ],
      "name": "isApprovedForAll",
      "outputs": [
        {
          "internalType": "bool",
          "name": "",
          "type": "bool"
        }
      ],
      "stateMutability": "view",
      "type": "function"
    },
    {
      "inputs": [
        {
          "internalType": "uint256[]",
          "name": "_tokenIds",
          "type": "uint256[]"
        },
        {
          "internalType": "uint256[]",
          "name": "_amounts",
          "type": "uint256[]"
        }
      ],
      "name": "mintBatch",
      "outputs": [],
      "stateMutability": "nonpayable",
      "type": "function"
    },
    {
      "inputs": [
        {
          "internalType": "uint256",
          "name": "_ticketId",
          "type": "uint256"
        }
      ],
      "name": "mintTicket",
      "outputs": [],
      "stateMutability": "nonpayable",
      "type": "function"
    },
    {
      "inputs": [
        {
          "internalType": "address",
          "name": "from",
          "type": "address"
        },
        {
          "internalType": "address",
          "name": "to",
          "type": "address"
        },
        {
          "internalType": "uint256[]",
          "name": "ids",
          "type": "uint256[]"
        },
        {
          "internalType": "uint256[]",
          "name": "amounts",
          "type": "uint256[]"
        },
        {
          "internalType": "bytes",
          "name": "data",
          "type": "bytes"
        }
      ],
      "name": "safeBatchTransferFrom",
      "outputs": [],
      "stateMutability": "nonpayable",
      "type": "function"
    },
    {
      "inputs": [
        {
          "internalType": "address",
          "name": "from",
          "type": "address"
        },
        {
          "internalType": "address",
          "name": "to",
          "type": "address"
        },
        {
          "internalType": "uint256",
          "name": "id",
          "type": "uint256"
        },
        {
          "internalType": "uint256",
          "name": "amount",
          "type": "uint256"
        },
        {
          "internalType": "bytes",
          "name": "data",
          "type": "bytes"
        }
      ],
      "name": "safeTransferFrom",
      "outputs": [],
      "stateMutability": "nonpayable",
      "type": "function"
    },
    {
      "inputs": [],
      "name": "salesPaid",
      "outputs": [
        {
          "internalType": "uint256",
          "name": "",
          "type": "uint256"
        }
      ],
      "stateMutability": "view",
      "type": "function"
    },
    {
      "inputs": [
        {
          "internalType": "address",
          "name": "operator",
          "type": "address"
        },
        {
          "internalType": "bool",
          "name": "approved",
          "type": "bool"
        }
      ],
      "name": "setApprovalForAll",
      "outputs": [],
      "stateMutability": "nonpayable",
      "type": "function"
    },
    {
      "inputs": [
        {
          "internalType": "string",
          "name": "_prefix",
          "type": "string"
        },
        {
          "internalType": "string",
          "name": "_suffix",
          "type": "string"
        }
      ],
      "name": "setBaseMetadataURI",
      "outputs": [],
      "stateMutability": "nonpayable",
      "type": "function"
    },
    {
      "inputs": [
        {
          "internalType": "uint256",
          "name": "_ticketId",
          "type": "uint256"
        },
        {
          "internalType": "address",
          "name": "_logicAddress",
          "type": "address"
        }
      ],
      "name": "setOracleContract",
      "outputs": [],
      "stateMutability": "nonpayable",
      "type": "function"
    },
    {
      "inputs": [
        {
          "internalType": "uint256",
          "name": "_ticketId",
          "type": "uint256"
        },
        {
          "internalType": "address",
          "name": "_feeAddress",
          "type": "address"
        },
        {
          "internalType": "uint256",
          "name": "_feeAmount",
          "type": "uint256"
        },
        {
          "internalType": "uint256",
          "name": "_startTime",
          "type": "uint256"
        },
        {
          "internalType": "uint256",
          "name": "_endTime",
          "type": "uint256"
        },
        {
          "internalType": "uint256",
          "name": "_eventTime",
          "type": "uint256"
        },
        {
          "internalType": "uint256",
          "name": "_mintLimit",
          "type": "uint256"
        }
      ],
      "name": "setTicket",
      "outputs": [],
      "stateMutability": "nonpayable",
      "type": "function"
    },
    {
      "inputs": [
        {
          "internalType": "uint256",
          "name": "_ticketId",
          "type": "uint256"
        },
        {
          "internalType": "address",
          "name": "_feeAddress",
          "type": "address"
        },
        {
          "internalType": "uint256",
          "name": "_feeAmount",
          "type": "uint256"
        },
        {
          "internalType": "uint256",
          "name": "_startTime",
          "type": "uint256"
        },
        {
          "internalType": "uint256",
          "name": "_endTime",
          "type": "uint256"
        },
        {
          "internalType": "uint256",
          "name": "_eventTime",
          "type": "uint256"
        },
        {
          "internalType": "uint256",
          "name": "_mintLimit",
          "type": "uint256"
        },
        {
          "internalType": "address",
          "name": "_oracleAddress",
          "type": "address"
        }
      ],
      "name": "setTicket",
      "outputs": [],
      "stateMutability": "nonpayable",
      "type": "function"
    },
    {
      "inputs": [
        {
          "internalType": "uint256",
          "name": "_ticketId",
          "type": "uint256"
        },
        {
          "internalType": "string",
          "name": "_uri",
          "type": "string"
        }
      ],
      "name": "setTokenURI",
      "outputs": [],
      "stateMutability": "nonpayable",
      "type": "function"
    },
    {
      "inputs": [
        {
          "internalType": "uint256",
          "name": "_ticketId",
          "type": "uint256"
        },
        {
          "internalType": "string",
          "name": "_uri01",
          "type": "string"
        },
        {
          "internalType": "string",
          "name": "_uri02",
          "type": "string"
        }
      ],
      "name": "setTokenURI",
      "outputs": [],
      "stateMutability": "nonpayable",
      "type": "function"
    },
    {
      "inputs": [
        {
          "internalType": "bytes4",
          "name": "interfaceId",
          "type": "bytes4"
        }
      ],
      "name": "supportsInterface",
      "outputs": [
        {
          "internalType": "bool",
          "name": "",
          "type": "bool"
        }
      ],
      "stateMutability": "view",
      "type": "function"
    },
    {
      "inputs": [],
      "name": "ticketCount",
      "outputs": [
        {
          "internalType": "uint256",
          "name": "",
          "type": "uint256"
        }
      ],
      "stateMutability": "view",
      "type": "function"
    },
    {
      "inputs": [
        {
          "internalType": "uint256",
          "name": "",
          "type": "uint256"
        }
      ],
      "name": "ticketList",
      "outputs": [
        {
          "internalType": "address",
          "name": "feeAddress",
          "type": "address"
        },
        {
          "internalType": "uint256",
          "name": "feeAmount",
          "type": "uint256"
        },
        {
          "internalType": "uint256",
          "name": "startTime",
          "type": "uint256"
        },
        {
          "internalType": "uint256",
          "name": "endTime",
          "type": "uint256"
        },
        {
          "internalType": "uint256",
          "name": "eventTime",
          "type": "uint256"
        },
        {
          "internalType": "uint256",
          "name": "mintLimit",
          "type": "uint256"
        }
      ],
      "stateMutability": "view",
      "type": "function"
    },
    {
      "inputs": [
        {
          "internalType": "uint256",
          "name": "",
          "type": "uint256"
        }
      ],
      "name": "ticketOracleLogic",
      "outputs": [
        {
          "internalType": "address",
          "name": "",
          "type": "address"
        }
      ],
      "stateMutability": "view",
      "type": "function"
    },
    {
      "inputs": [
        {
          "internalType": "uint256",
          "name": "",
          "type": "uint256"
        }
      ],
      "name": "ticketSales",
      "outputs": [
        {
          "internalType": "uint256",
          "name": "",
          "type": "uint256"
        }
      ],
      "stateMutability": "view",
      "type": "function"
    },
    {
      "inputs": [
        {
          "internalType": "uint256",
          "name": "_ticketId",
          "type": "uint256"
        },
        {
          "internalType": "address",
          "name": "_feeAddress",
          "type": "address"
        },
        {
          "internalType": "uint256",
          "name": "_feeAmount",
          "type": "uint256"
        },
        {
          "internalType": "uint256",
          "name": "_startTime",
          "type": "uint256"
        },
        {
          "internalType": "uint256",
          "name": "_endTime",
          "type": "uint256"
        },
        {
          "internalType": "uint256",
          "name": "_eventTime",
          "type": "uint256"
        },
        {
          "internalType": "uint256",
          "name": "_mintLimit",
          "type": "uint256"
        }
      ],
      "name": "updateTicket",
      "outputs": [],
      "stateMutability": "nonpayable",
      "type": "function"
    },
    {
      "inputs": [
        {
          "internalType": "uint256",
          "name": "_ticketId",
          "type": "uint256"
        },
        {
          "internalType": "address",
          "name": "_newAdmin",
          "type": "address"
        }
      ],
      "name": "updateTicketAdmin",
      "outputs": [],
      "stateMutability": "nonpayable",
      "type": "function"
    },
    {
      "inputs": [
        {
          "internalType": "uint256",
          "name": "tokenId",
          "type": "uint256"
        }
      ],
      "name": "uri",
      "outputs": [
        {
          "internalType": "string",
          "name": "",
          "type": "string"
        }
      ],
      "stateMutability": "view",
      "type": "function"
    },
    {
      "inputs": [
        {
          "internalType": "uint256",
          "name": "_ticketId",
          "type": "uint256"
        }
      ],
      "name": "useTicket",
      "outputs": [],
      "stateMutability": "nonpayable",
      "type": "function"
    },
    {
      "inputs": [
        {
          "internalType": "uint256",
          "name": "_ticketId",
          "type": "uint256"
        },
        {
          "internalType": "uint256",
          "name": "_amount",
          "type": "uint256"
        }
      ],
      "name": "withdrawSales",
      "outputs": [],
      "stateMutability": "nonpayable",
      "type": "function"
    },
    {
      "inputs": [
        {
          "internalType": "address",
          "name": "_tokenAddress",
          "type": "address"
        },
        {
          "internalType": "uint256",
          "name": "_amount",
          "type": "uint256"
        }
      ],
      "name": "withdrawToken",
      "outputs": [],
      "stateMutability": "nonpayable",
      "type": "function"
    }
  ],
  "bytecode": "0x60806040523480156200001157600080fd5b50604051806020016040528060008152506200003381620000fd60201b60201c565b5060405180606001604052806026815260200162005b3060269139600b90816200005e91906200038c565b506040518060400160405280600581526020017f2e6a736f6e000000000000000000000000000000000000000000000000000000815250600c9081620000a591906200038c565b5033600360006101000a81548173ffffffffffffffffffffffffffffffffffffffff021916908373ffffffffffffffffffffffffffffffffffffffff1602179055506061600481905550600060058190555062000473565b80600290816200010e91906200038c565b5050565b600081519050919050565b7f4e487b7100000000000000000000000000000000000000000000000000000000600052604160045260246000fd5b7f4e487b7100000000000000000000000000000000000000000000000000000000600052602260045260246000fd5b600060028204905060018216806200019457607f821691505b602082108103620001aa57620001a96200014c565b5b50919050565b60008190508160005260206000209050919050565b60006020601f8301049050919050565b600082821b905092915050565b600060088302620002147fffffffffffffffffffffffffffffffffffffffffffffffffffffffffffffffff82620001d5565b620002208683620001d5565b95508019841693508086168417925050509392505050565b6000819050919050565b6000819050919050565b60006200026d62000267620002618462000238565b62000242565b62000238565b9050919050565b6000819050919050565b62000289836200024c565b620002a1620002988262000274565b848454620001e2565b825550505050565b600090565b620002b8620002a9565b620002c58184846200027e565b505050565b5b81811015620002ed57620002e1600082620002ae565b600181019050620002cb565b5050565b601f8211156200033c576200030681620001b0565b6200031184620001c5565b8101602085101562000321578190505b620003396200033085620001c5565b830182620002ca565b50505b505050565b600082821c905092915050565b6000620003616000198460080262000341565b1980831691505092915050565b60006200037c83836200034e565b9150826002028217905092915050565b620003978262000112565b67ffffffffffffffff811115620003b357620003b26200011d565b5b620003bf82546200017b565b620003cc828285620002f1565b600060209050601f831160018114620004045760008415620003ef578287015190505b620003fb85826200036e565b8655506200046b565b601f1984166200041486620001b0565b60005b828110156200043e5784890151825560018201915060208501945060208101905062000417565b868310156200045e57848901516200045a601f8916826200034e565b8355505b6001600288020188555050505b505050505050565b6156ad80620004836000396000f3fe608060405234801561001057600080fd5b50600436106101c35760003560e01c806391d512f6116100f9578063cfbd900f11610097578063e985e9c511610071578063e985e9c514610511578063f242432a14610541578063fb42cc7b1461055d578063fbe186211461057b576101c3565b8063cfbd900f146104bb578063d351cfdc146104d9578063e1abcc96146104f5576101c3565b80639e281a98116100d35780639e281a9814610435578063a07e768614610451578063a22cb46514610481578063ce606ee01461049d576101c3565b806391d512f6146103cd5780639a29057b146103e95780639c543d9914610419576101c3565b80632eb2c2d61161016657806377f06adf1161014057806377f06adf1461035d5780637991d9c514610379578063880dfff6146103955780638b776fd5146103b1576101c3565b80632eb2c2d6146102dc57806340756f33146102f85780634e1273f41461032d576101c3565b806311117fc8116101a257806311117fc814610258578063162094c414610288578063256d52f6146102a457806326606448146102c0576101c3565b8062fdd58e146101c857806301ffc9a7146101f85780630e89341c14610228575b600080fd5b6101e260048036038101906101dd91906133b2565b610597565b6040516101ef9190613401565b60405180910390f35b610212600480360381019061020d9190613474565b61065f565b60405161021f91906134bc565b60405180910390f35b610242600480360381019061023d91906134d7565b610741565b60405161024f9190613594565b60405180910390f35b610272600480360381019061026d91906134d7565b6107ac565b60405161027f91906135c5565b60405180910390f35b6102a2600480360381019061029d9190613715565b6107df565b005b6102be60048036038101906102b991906134d7565b6108d9565b005b6102da60048036038101906102d591906134d7565b610bde565b005b6102f660048036038101906102f191906138da565b610e65565b005b610312600480360381019061030d91906134d7565b610f06565b604051610324969594939291906139a9565b60405180910390f35b61034760048036038101906103429190613acd565b610f62565b6040516103549190613c03565b60405180910390f35b61037760048036038101906103729190613c25565b61107b565b005b610393600480360381019061038e9190613cb0565b6111a3565b005b6103af60048036038101906103aa9190613d52565b611374565b005b6103cb60048036038101906103c69190613d92565b611435565b005b6103e760048036038101906103e29190613cb0565b6116da565b005b61040360048036038101906103fe91906134d7565b6118cc565b60405161041091906135c5565b60405180910390f35b610433600480360381019061042e9190613dd2565b6118ff565b005b61044f600480360381019061044a91906133b2565b611b23565b005b61046b600480360381019061046691906134d7565b611d36565b6040516104789190613401565b60405180910390f35b61049b60048036038101906104969190613eb4565b611d4e565b005b6104a5611d64565b6040516104b291906135c5565b60405180910390f35b6104c3611d8a565b6040516104d09190613401565b60405180910390f35b6104f360048036038101906104ee9190613ef4565b611d90565b005b61050f600480360381019061050a9190613d52565b611e3f565b005b61052b60048036038101906105269190613f6c565b611f00565b60405161053891906134bc565b60405180910390f35b61055b60048036038101906105569190613fac565b611f94565b005b610565612035565b6040516105729190613401565b60405180910390f35b61059560048036038101906105909190614043565b61203b565b005b60008073ffffffffffffffffffffffffffffffffffffffff168373ffffffffffffffffffffffffffffffffffffffff1603610607576040517f08c379a00000000000000000000000000000000000000000000000000000000081526004016105fe9061412d565b60405180910390fd5b60008083815260200190815260200160002060008473ffffffffffffffffffffffffffffffffffffffff1673ffffffffffffffffffffffffffffffffffffffff16815260200190815260200160002054905092915050565b60007fd9b67a26000000000000000000000000000000000000000000000000000000007bffffffffffffffffffffffffffffffffffffffffffffffffffffffff1916827bffffffffffffffffffffffffffffffffffffffffffffffffffffffff1916148061072a57507f0e89341c000000000000000000000000000000000000000000000000000000007bffffffffffffffffffffffffffffffffffffffffffffffffffffffff1916827bffffffffffffffffffffffffffffffffffffffffffffffffffffffff1916145b8061073a57506107398261205f565b5b9050919050565b6060600061074f60006120c9565b9050600081511161076f57604051806020016040528060008152506107a4565b8060066000858152602001908152602001600020604051602001610794929190614281565b6040516020818303038152906040525b915050919050565b60086020528060005260406000206000915054906101000a900473ffffffffffffffffffffffffffffffffffffffff1681565b6008600083815260200190815260200160002060009054906101000a900473ffffffffffffffffffffffffffffffffffffffff1673ffffffffffffffffffffffffffffffffffffffff163373ffffffffffffffffffffffffffffffffffffffff1614806108ab57506008600083815260200190815260200160002060009054906101000a900473ffffffffffffffffffffffffffffffffffffffff1673ffffffffffffffffffffffffffffffffffffffff16600073ffffffffffffffffffffffffffffffffffffffff16145b6108b457600080fd5b806006600084815260200190815260200160002090816108d4919061443c565b505050565b60076000828152602001908152602001600020600201544210158015610915575060076000828152602001908152602001600020600301544211155b610954576040517f08c379a000000000000000000000000000000000000000000000000000000000815260040161094b90614580565b60405180910390fd5b60006007600083815260200190815260200160002060000160009054906101000a900473ffffffffffffffffffffffffffffffffffffffff1690506000600760008481526020019081526020016000206001015490506000829050818173ffffffffffffffffffffffffffffffffffffffff166370a08231336040518263ffffffff1660e01b81526004016109e991906135c5565b602060405180830381865afa158015610a06573d6000803e3d6000fd5b505050506040513d601f19601f82011682018060405250810190610a2a91906145b5565b1015610a6b576040517f08c379a0000000000000000000000000000000000000000000000000000000008152600401610a629061462e565b60405180910390fd5b8073ffffffffffffffffffffffffffffffffffffffff166323b872dd3330856040518463ffffffff1660e01b8152600401610aa89392919061464e565b6020604051808303816000875af1158015610ac7573d6000803e3d6000fd5b505050506040513d601f19601f82011682018060405250810190610aeb919061469a565b610b2a576040517f08c379a0000000000000000000000000000000000000000000000000000000008152600401610b2190614713565b60405180910390fd5b610b46338560016040518060200160405280600081525061215d565b6000600a60008681526020019081526020016000205490506000606460045485610b709190614762565b610b7a91906147d3565b90508082610b889190614804565b600a6000888152602001908152602001600020819055507fd6416390b3aea734bc31f5c68df7b2f3d72b2280730eb60ee5405877442eb2de86604051610bce9190613401565b60405180910390a1505050505050565b610bea3382600161230d565b610c1233600183610bfb9190614804565b60016040518060200160405280600081525061215d565b600073ffffffffffffffffffffffffffffffffffffffff166009600083815260200190815260200160002060009054906101000a900473ffffffffffffffffffffffffffffffffffffffff1673ffffffffffffffffffffffffffffffffffffffff1614610e625760006007600083815260200190815260200160002060000160009054906101000a900473ffffffffffffffffffffffffffffffffffffffff16905060006007600084815260200190815260200160002060010154905060008290508073ffffffffffffffffffffffffffffffffffffffff1663095ea7b36009600087815260200190815260200160002060009054906101000a900473ffffffffffffffffffffffffffffffffffffffff16600a85610d3191906147d3565b6040518363ffffffff1660e01b8152600401610d4e929190614838565b6020604051808303816000875af1158015610d6d573d6000803e3d6000fd5b505050506040513d601f19601f82011682018060405250810190610d91919061469a565b5060006009600086815260200190815260200160002060009054906101000a900473ffffffffffffffffffffffffffffffffffffffff16905060008190508073ffffffffffffffffffffffffffffffffffffffff166359cb53cf8633601488610dfa91906147d3565b6040518463ffffffff1660e01b8152600401610e189392919061464e565b6020604051808303816000875af1158015610e37573d6000803e3d6000fd5b505050506040513d601f19601f82011682018060405250810190610e5b9190614897565b5050505050505b50565b610e6d612553565b73ffffffffffffffffffffffffffffffffffffffff168573ffffffffffffffffffffffffffffffffffffffff161480610eb35750610eb285610ead612553565b611f00565b5b610ef2576040517f08c379a0000000000000000000000000000000000000000000000000000000008152600401610ee990614936565b60405180910390fd5b610eff858585858561255b565b5050505050565b60076020528060005260406000206000915090508060000160009054906101000a900473ffffffffffffffffffffffffffffffffffffffff16908060010154908060020154908060030154908060040154908060050154905086565b60608151835114610fa8576040517f08c379a0000000000000000000000000000000000000000000000000000000008152600401610f9f906149c8565b60405180910390fd5b6000835167ffffffffffffffff811115610fc557610fc46135ea565b5b604051908082528060200260200182016040528015610ff35781602001602082028036833780820191505090505b50905060005b845181101561107057611040858281518110611018576110176149e8565b5b6020026020010151858381518110611033576110326149e8565b5b6020026020010151610597565b828281518110611053576110526149e8565b5b6020026020010181815250508061106990614a17565b9050610ff9565b508091505092915050565b6008600084815260200190815260200160002060009054906101000a900473ffffffffffffffffffffffffffffffffffffffff1673ffffffffffffffffffffffffffffffffffffffff163373ffffffffffffffffffffffffffffffffffffffff16148061114757506008600084815260200190815260200160002060009054906101000a900473ffffffffffffffffffffffffffffffffffffffff1673ffffffffffffffffffffffffffffffffffffffff16600073ffffffffffffffffffffffffffffffffffffffff16145b61115057600080fd5b81600660008581526020019081526020016000209081611170919061443c565b5080600660006001866111839190614804565b8152602001908152602001600020908161119d919061443c565b50505050565b856007600089815260200190815260200160002060000160006101000a81548173ffffffffffffffffffffffffffffffffffffffff021916908373ffffffffffffffffffffffffffffffffffffffff160217905550670de0b6b3a76400008561120c9190614762565b6007600089815260200190815260200160002060010181905550836007600089815260200190815260200160002060020181905550826007600089815260200190815260200160002060030181905550816007600089815260200190815260200160002060040181905550806007600089815260200190815260200160002060050181905550336008600089815260200190815260200160002060006101000a81548173ffffffffffffffffffffffffffffffffffffffff021916908373ffffffffffffffffffffffffffffffffffffffff1602179055506000600a600089815260200190815260200160002081905550600160055461130c9190614804565b6005819055507f7a6f1adc8228d4c5168d88de9b80d43b60c58eaa40a5192962108bdaf0c87b2387600660008a81526020019081526020016000203389898989898960405161136399989796959493929190614ae3565b60405180910390a150505050505050565b6008600083815260200190815260200160002060009054906101000a900473ffffffffffffffffffffffffffffffffffffffff1673ffffffffffffffffffffffffffffffffffffffff163373ffffffffffffffffffffffffffffffffffffffff16146113df57600080fd5b806009600084815260200190815260200160002060006101000a81548173ffffffffffffffffffffffffffffffffffffffff021916908373ffffffffffffffffffffffffffffffffffffffff1602179055505050565b6008600083815260200190815260200160002060009054906101000a900473ffffffffffffffffffffffffffffffffffffffff1673ffffffffffffffffffffffffffffffffffffffff163373ffffffffffffffffffffffffffffffffffffffff16146114d6576040517f08c379a00000000000000000000000000000000000000000000000000000000081526004016114cd90614be9565b60405180910390fd5b80600a600084815260200190815260200160002054101561152c576040517f08c379a000000000000000000000000000000000000000000000000000000000815260040161152390614c55565b60405180910390fd5b6007600083815260200190815260200160002060040154421015611585576040517f08c379a000000000000000000000000000000000000000000000000000000000815260040161157c90614ce7565b60405180910390fd5b60006007600084815260200190815260200160002060000160009054906101000a900473ffffffffffffffffffffffffffffffffffffffff169050600081905060008173ffffffffffffffffffffffffffffffffffffffff1663a9059cbb33866040518363ffffffff1660e01b8152600401611602929190614838565b6020604051808303816000875af1158015611621573d6000803e3d6000fd5b505050506040513d601f19601f82011682018060405250810190611645919061469a565b905080611687576040517f08c379a000000000000000000000000000000000000000000000000000000000815260040161167e90614d53565b60405180910390fd5b7f23a4c8ba530c9977837e177a857c3f2716ccd4db6b552408b706225f452e59a985600a6000888152602001908152602001600020546040516116cb929190614d73565b60405180910390a15050505050565b6008600088815260200190815260200160002060009054906101000a900473ffffffffffffffffffffffffffffffffffffffff1673ffffffffffffffffffffffffffffffffffffffff163373ffffffffffffffffffffffffffffffffffffffff161461177b576040517f08c379a000000000000000000000000000000000000000000000000000000000815260040161177290614be9565b60405180910390fd5b856007600089815260200190815260200160002060000160006101000a81548173ffffffffffffffffffffffffffffffffffffffff021916908373ffffffffffffffffffffffffffffffffffffffff160217905550670de0b6b3a7640000856117e49190614762565b60076000898152602001908152602001600020600101819055508360076000898152602001908152602001600020600201819055508260076000898152602001908152602001600020600301819055508160076000898152602001908152602001600020600401819055508060076000898152602001908152602001600020600501819055507f7a6f1adc8228d4c5168d88de9b80d43b60c58eaa40a5192962108bdaf0c87b2387600660008a8152602001908152602001600020338989898989896040516118bb99989796959493929190614ae3565b60405180910390a150505050505050565b60096020528060005260406000206000915054906101000a900473ffffffffffffffffffffffffffffffffffffffff1681565b86600760008a815260200190815260200160002060000160006101000a81548173ffffffffffffffffffffffffffffffffffffffff021916908373ffffffffffffffffffffffffffffffffffffffff160217905550670de0b6b3a7640000866119689190614762565b600760008a81526020019081526020016000206001018190555084600760008a81526020019081526020016000206002018190555083600760008a81526020019081526020016000206003018190555082600760008a81526020019081526020016000206004018190555081600760008a81526020019081526020016000206005018190555033600860008a815260200190815260200160002060006101000a81548173ffffffffffffffffffffffffffffffffffffffff021916908373ffffffffffffffffffffffffffffffffffffffff1602179055506000600a60008a81526020019081526020016000208190555080600960008a815260200190815260200160002060006101000a81548173ffffffffffffffffffffffffffffffffffffffff021916908373ffffffffffffffffffffffffffffffffffffffff1602179055507f7a6f1adc8228d4c5168d88de9b80d43b60c58eaa40a5192962108bdaf0c87b2388600660008b8152602001908152602001600020338a8a8a8a8a8a604051611afc99989796959493929190614ae3565b60405180910390a16001600554611b139190614804565b6005819055505050505050505050565b600360009054906101000a900473ffffffffffffffffffffffffffffffffffffffff1673ffffffffffffffffffffffffffffffffffffffff163373ffffffffffffffffffffffffffffffffffffffff1614611bb3576040517f08c379a0000000000000000000000000000000000000000000000000000000008152600401611baa90614de8565b60405180910390fd5b6000829050818173ffffffffffffffffffffffffffffffffffffffff166370a08231306040518263ffffffff1660e01b8152600401611bf291906135c5565b602060405180830381865afa158015611c0f573d6000803e3d6000fd5b505050506040513d601f19601f82011682018060405250810190611c3391906145b5565b1015611c74576040517f08c379a0000000000000000000000000000000000000000000000000000000008152600401611c6b90614c55565b60405180910390fd5b8073ffffffffffffffffffffffffffffffffffffffff1663a9059cbb33846040518363ffffffff1660e01b8152600401611caf929190614838565b6020604051808303816000875af1158015611cce573d6000803e3d6000fd5b505050506040513d601f19601f82011682018060405250810190611cf2919061469a565b611d31576040517f08c379a0000000000000000000000000000000000000000000000000000000008152600401611d2890614e54565b60405180910390fd5b505050565b600a6020528060005260406000206000915090505481565b611d60611d59612553565b838361287c565b5050565b600360009054906101000a900473ffffffffffffffffffffffffffffffffffffffff1681565b60055481565b600360009054906101000a900473ffffffffffffffffffffffffffffffffffffffff1673ffffffffffffffffffffffffffffffffffffffff163373ffffffffffffffffffffffffffffffffffffffff1614611e20576040517f08c379a0000000000000000000000000000000000000000000000000000000008152600401611e1790614ee6565b60405180910390fd5b611e3b338383604051806020016040528060008152506129e8565b5050565b6008600083815260200190815260200160002060009054906101000a900473ffffffffffffffffffffffffffffffffffffffff1673ffffffffffffffffffffffffffffffffffffffff163373ffffffffffffffffffffffffffffffffffffffff1614611eaa57600080fd5b806008600084815260200190815260200160002060006101000a81548173ffffffffffffffffffffffffffffffffffffffff021916908373ffffffffffffffffffffffffffffffffffffffff1602179055505050565b6000600160008473ffffffffffffffffffffffffffffffffffffffff1673ffffffffffffffffffffffffffffffffffffffff16815260200190815260200160002060008373ffffffffffffffffffffffffffffffffffffffff1673ffffffffffffffffffffffffffffffffffffffff16815260200190815260200160002060009054906101000a900460ff16905092915050565b611f9c612553565b73ffffffffffffffffffffffffffffffffffffffff168573ffffffffffffffffffffffffffffffffffffffff161480611fe25750611fe185611fdc612553565b611f00565b5b612021576040517f08c379a000000000000000000000000000000000000000000000000000000000815260040161201890614936565b60405180910390fd5b61202e8585858585612c14565b5050505050565b60045481565b81600b908161204a919061443c565b5080600c908161205a919061443c565b505050565b60007f01ffc9a7000000000000000000000000000000000000000000000000000000007bffffffffffffffffffffffffffffffffffffffffffffffffffffffff1916827bffffffffffffffffffffffffffffffffffffffffffffffffffffffff1916149050919050565b6060600280546120d8906141b8565b80601f0160208091040260200160405190810160405280929190818152602001828054612104906141b8565b80156121515780601f1061212657610100808354040283529160200191612151565b820191906000526020600020905b81548152906001019060200180831161213457829003601f168201915b50505050509050919050565b600073ffffffffffffffffffffffffffffffffffffffff168473ffffffffffffffffffffffffffffffffffffffff16036121cc576040517f08c379a00000000000000000000000000000000000000000000000000000000081526004016121c390614f78565b60405180910390fd5b60006121d6612553565b905060006121e385612eaf565b905060006121f085612eaf565b905061220183600089858589612f29565b8460008088815260200190815260200160002060008973ffffffffffffffffffffffffffffffffffffffff1673ffffffffffffffffffffffffffffffffffffffff16815260200190815260200160002060008282546122609190614804565b925050819055508673ffffffffffffffffffffffffffffffffffffffff16600073ffffffffffffffffffffffffffffffffffffffff168473ffffffffffffffffffffffffffffffffffffffff167fc3d58168c5ae7397731d063d5bbf3d657854427343f4c083240f7aacaa2d0f6289896040516122de929190614d73565b60405180910390a46122f583600089858589612f31565b61230483600089898989612f39565b50505050505050565b600073ffffffffffffffffffffffffffffffffffffffff168373ffffffffffffffffffffffffffffffffffffffff160361237c576040517f08c379a00000000000000000000000000000000000000000000000000000000081526004016123739061500a565b60405180910390fd5b6000612386612553565b9050600061239384612eaf565b905060006123a084612eaf565b90506123c083876000858560405180602001604052806000815250612f29565b600080600087815260200190815260200160002060008873ffffffffffffffffffffffffffffffffffffffff1673ffffffffffffffffffffffffffffffffffffffff16815260200190815260200160002054905084811015612457576040517f08c379a000000000000000000000000000000000000000000000000000000000815260040161244e9061509c565b60405180910390fd5b84810360008088815260200190815260200160002060008973ffffffffffffffffffffffffffffffffffffffff1673ffffffffffffffffffffffffffffffffffffffff16815260200190815260200160002081905550600073ffffffffffffffffffffffffffffffffffffffff168773ffffffffffffffffffffffffffffffffffffffff168573ffffffffffffffffffffffffffffffffffffffff167fc3d58168c5ae7397731d063d5bbf3d657854427343f4c083240f7aacaa2d0f628989604051612524929190614d73565b60405180910390a461254a84886000868660405180602001604052806000815250612f31565b50505050505050565b600033905090565b815183511461259f576040517f08c379a00000000000000000000000000000000000000000000000000000000081526004016125969061512e565b60405180910390fd5b600073ffffffffffffffffffffffffffffffffffffffff168473ffffffffffffffffffffffffffffffffffffffff160361260e576040517f08c379a0000000000000000000000000000000000000000000000000000000008152600401612605906151c0565b60405180910390fd5b6000612618612553565b9050612628818787878787612f29565b60005b84518110156127d9576000858281518110612649576126486149e8565b5b602002602001015190506000858381518110612668576126676149e8565b5b60200260200101519050600080600084815260200190815260200160002060008b73ffffffffffffffffffffffffffffffffffffffff1673ffffffffffffffffffffffffffffffffffffffff16815260200190815260200160002054905081811015612709576040517f08c379a000000000000000000000000000000000000000000000000000000000815260040161270090615252565b60405180910390fd5b81810360008085815260200190815260200160002060008c73ffffffffffffffffffffffffffffffffffffffff1673ffffffffffffffffffffffffffffffffffffffff168152602001908152602001600020819055508160008085815260200190815260200160002060008b73ffffffffffffffffffffffffffffffffffffffff1673ffffffffffffffffffffffffffffffffffffffff16815260200190815260200160002060008282546127be9190614804565b92505081905550505050806127d290614a17565b905061262b565b508473ffffffffffffffffffffffffffffffffffffffff168673ffffffffffffffffffffffffffffffffffffffff168273ffffffffffffffffffffffffffffffffffffffff167f4a39dc06d4c0dbc64b70af90fd698a233a518aa5d07e595d983b8c0526c8f7fb8787604051612850929190615272565b60405180910390a4612866818787878787612f31565b612874818787878787613110565b505050505050565b8173ffffffffffffffffffffffffffffffffffffffff168373ffffffffffffffffffffffffffffffffffffffff16036128ea576040517f08c379a00000000000000000000000000000000000000000000000000000000081526004016128e19061531b565b60405180910390fd5b80600160008573ffffffffffffffffffffffffffffffffffffffff1673ffffffffffffffffffffffffffffffffffffffff16815260200190815260200160002060008473ffffffffffffffffffffffffffffffffffffffff1673ffffffffffffffffffffffffffffffffffffffff16815260200190815260200160002060006101000a81548160ff0219169083151502179055508173ffffffffffffffffffffffffffffffffffffffff168373ffffffffffffffffffffffffffffffffffffffff167f17307eab39ab6107e8899845ad3d59bd9653f200f220920489ca2b5937696c31836040516129db91906134bc565b60405180910390a3505050565b600073ffffffffffffffffffffffffffffffffffffffff168473ffffffffffffffffffffffffffffffffffffffff1603612a57576040517f08c379a0000000000000000000000000000000000000000000000000000000008152600401612a4e90614f78565b60405180910390fd5b8151835114612a9b576040517f08c379a0000000000000000000000000000000000000000000000000000000008152600401612a929061512e565b60405180910390fd5b6000612aa5612553565b9050612ab681600087878787612f29565b60005b8451811015612b6f57838181518110612ad557612ad46149e8565b5b6020026020010151600080878481518110612af357612af26149e8565b5b6020026020010151815260200190815260200160002060008873ffffffffffffffffffffffffffffffffffffffff1673ffffffffffffffffffffffffffffffffffffffff1681526020019081526020016000206000828254612b559190614804565b925050819055508080612b6790614a17565b915050612ab9565b508473ffffffffffffffffffffffffffffffffffffffff16600073ffffffffffffffffffffffffffffffffffffffff168273ffffffffffffffffffffffffffffffffffffffff167f4a39dc06d4c0dbc64b70af90fd698a233a518aa5d07e595d983b8c0526c8f7fb8787604051612be7929190615272565b60405180910390a4612bfe81600087878787612f31565b612c0d81600087878787613110565b5050505050565b600073ffffffffffffffffffffffffffffffffffffffff168473ffffffffffffffffffffffffffffffffffffffff1603612c83576040517f08c379a0000000000000000000000000000000000000000000000000000000008152600401612c7a906151c0565b60405180910390fd5b6000612c8d612553565b90506000612c9a85612eaf565b90506000612ca785612eaf565b9050612cb7838989858589612f29565b600080600088815260200190815260200160002060008a73ffffffffffffffffffffffffffffffffffffffff1673ffffffffffffffffffffffffffffffffffffffff16815260200190815260200160002054905085811015612d4e576040517f08c379a0000000000000000000000000000000000000000000000000000000008152600401612d4590615252565b60405180910390fd5b85810360008089815260200190815260200160002060008b73ffffffffffffffffffffffffffffffffffffffff1673ffffffffffffffffffffffffffffffffffffffff168152602001908152602001600020819055508560008089815260200190815260200160002060008a73ffffffffffffffffffffffffffffffffffffffff1673ffffffffffffffffffffffffffffffffffffffff1681526020019081526020016000206000828254612e039190614804565b925050819055508773ffffffffffffffffffffffffffffffffffffffff168973ffffffffffffffffffffffffffffffffffffffff168573ffffffffffffffffffffffffffffffffffffffff167fc3d58168c5ae7397731d063d5bbf3d657854427343f4c083240f7aacaa2d0f628a8a604051612e80929190614d73565b60405180910390a4612e96848a8a86868a612f31565b612ea4848a8a8a8a8a612f39565b505050505050505050565b60606000600167ffffffffffffffff811115612ece57612ecd6135ea565b5b604051908082528060200260200182016040528015612efc5781602001602082028036833780820191505090505b5090508281600081518110612f1457612f136149e8565b5b60200260200101818152505080915050919050565b505050505050565b505050505050565b612f588473ffffffffffffffffffffffffffffffffffffffff166132e7565b15613108578373ffffffffffffffffffffffffffffffffffffffff1663f23a6e6187878686866040518663ffffffff1660e01b8152600401612f9e959493929190615390565b6020604051808303816000875af1925050508015612fda57506040513d601f19601f82011682018060405250810190612fd791906153ff565b60015b61307f57612fe6615439565b806308c379a0036130425750612ffa61545b565b806130055750613044565b806040517f08c379a00000000000000000000000000000000000000000000000000000000081526004016130399190613594565b60405180910390fd5b505b6040517f08c379a00000000000000000000000000000000000000000000000000000000081526004016130769061555d565b60405180910390fd5b63f23a6e6160e01b7bffffffffffffffffffffffffffffffffffffffffffffffffffffffff1916817bffffffffffffffffffffffffffffffffffffffffffffffffffffffff191614613106576040517f08c379a00000000000000000000000000000000000000000000000000000000081526004016130fd906155ef565b60405180910390fd5b505b505050505050565b61312f8473ffffffffffffffffffffffffffffffffffffffff166132e7565b156132df578373ffffffffffffffffffffffffffffffffffffffff1663bc197c8187878686866040518663ffffffff1660e01b815260040161317595949392919061560f565b6020604051808303816000875af19250505080156131b157506040513d601f19601f820116820180604052508101906131ae91906153ff565b60015b613256576131bd615439565b806308c379a00361321957506131d161545b565b806131dc575061321b565b806040517f08c379a00000000000000000000000000000000000000000000000000000000081526004016132109190613594565b60405180910390fd5b505b6040517f08c379a000000000000000000000000000000000000000000000000000000000815260040161324d9061555d565b60405180910390fd5b63bc197c8160e01b7bffffffffffffffffffffffffffffffffffffffffffffffffffffffff1916817bffffffffffffffffffffffffffffffffffffffffffffffffffffffff1916146132dd576040517f08c379a00000000000000000000000000000000000000000000000000000000081526004016132d4906155ef565b60405180910390fd5b505b505050505050565b6000808273ffffffffffffffffffffffffffffffffffffffff163b119050919050565b6000604051905090565b600080fd5b600080fd5b600073ffffffffffffffffffffffffffffffffffffffff82169050919050565b60006133498261331e565b9050919050565b6133598161333e565b811461336457600080fd5b50565b60008135905061337681613350565b92915050565b6000819050919050565b61338f8161337c565b811461339a57600080fd5b50565b6000813590506133ac81613386565b92915050565b600080604083850312156133c9576133c8613314565b5b60006133d785828601613367565b92505060206133e88582860161339d565b9150509250929050565b6133fb8161337c565b82525050565b600060208201905061341660008301846133f2565b92915050565b60007fffffffff0000000000000000000000000000000000000000000000000000000082169050919050565b6134518161341c565b811461345c57600080fd5b50565b60008135905061346e81613448565b92915050565b60006020828403121561348a57613489613314565b5b60006134988482850161345f565b91505092915050565b60008115159050919050565b6134b6816134a1565b82525050565b60006020820190506134d160008301846134ad565b92915050565b6000602082840312156134ed576134ec613314565b5b60006134fb8482850161339d565b91505092915050565b600081519050919050565b600082825260208201905092915050565b60005b8381101561353e578082015181840152602081019050613523565b60008484015250505050565b6000601f19601f8301169050919050565b600061356682613504565b613570818561350f565b9350613580818560208601613520565b6135898161354a565b840191505092915050565b600060208201905081810360008301526135ae818461355b565b905092915050565b6135bf8161333e565b82525050565b60006020820190506135da60008301846135b6565b92915050565b600080fd5b600080fd5b7f4e487b7100000000000000000000000000000000000000000000000000000000600052604160045260246000fd5b6136228261354a565b810181811067ffffffffffffffff82111715613641576136406135ea565b5b80604052505050565b600061365461330a565b90506136608282613619565b919050565b600067ffffffffffffffff8211156136805761367f6135ea565b5b6136898261354a565b9050602081019050919050565b82818337600083830152505050565b60006136b86136b384613665565b61364a565b9050828152602081018484840111156136d4576136d36135e5565b5b6136df848285613696565b509392505050565b600082601f8301126136fc576136fb6135e0565b5b813561370c8482602086016136a5565b91505092915050565b6000806040838503121561372c5761372b613314565b5b600061373a8582860161339d565b925050602083013567ffffffffffffffff81111561375b5761375a613319565b5b613767858286016136e7565b9150509250929050565b600067ffffffffffffffff82111561378c5761378b6135ea565b5b602082029050602081019050919050565b600080fd5b60006137b56137b084613771565b61364a565b905080838252602082019050602084028301858111156137d8576137d761379d565b5b835b8181101561380157806137ed888261339d565b8452602084019350506020810190506137da565b5050509392505050565b600082601f8301126138205761381f6135e0565b5b81356138308482602086016137a2565b91505092915050565b600067ffffffffffffffff821115613854576138536135ea565b5b61385d8261354a565b9050602081019050919050565b600061387d61387884613839565b61364a565b905082815260208101848484011115613899576138986135e5565b5b6138a4848285613696565b509392505050565b600082601f8301126138c1576138c06135e0565b5b81356138d184826020860161386a565b91505092915050565b600080600080600060a086880312156138f6576138f5613314565b5b600061390488828901613367565b955050602061391588828901613367565b945050604086013567ffffffffffffffff81111561393657613935613319565b5b6139428882890161380b565b935050606086013567ffffffffffffffff81111561396357613962613319565b5b61396f8882890161380b565b925050608086013567ffffffffffffffff8111156139905761398f613319565b5b61399c888289016138ac565b9150509295509295909350565b600060c0820190506139be60008301896135b6565b6139cb60208301886133f2565b6139d860408301876133f2565b6139e560608301866133f2565b6139f260808301856133f2565b6139ff60a08301846133f2565b979650505050505050565b600067ffffffffffffffff821115613a2557613a246135ea565b5b602082029050602081019050919050565b6000613a49613a4484613a0a565b61364a565b90508083825260208201905060208402830185811115613a6c57613a6b61379d565b5b835b81811015613a955780613a818882613367565b845260208401935050602081019050613a6e565b5050509392505050565b600082601f830112613ab457613ab36135e0565b5b8135613ac4848260208601613a36565b91505092915050565b60008060408385031215613ae457613ae3613314565b5b600083013567ffffffffffffffff811115613b0257613b01613319565b5b613b0e85828601613a9f565b925050602083013567ffffffffffffffff811115613b2f57613b2e613319565b5b613b3b8582860161380b565b9150509250929050565b600081519050919050565b600082825260208201905092915050565b6000819050602082019050919050565b613b7a8161337c565b82525050565b6000613b8c8383613b71565b60208301905092915050565b6000602082019050919050565b6000613bb082613b45565b613bba8185613b50565b9350613bc583613b61565b8060005b83811015613bf6578151613bdd8882613b80565b9750613be883613b98565b925050600181019050613bc9565b5085935050505092915050565b60006020820190508181036000830152613c1d8184613ba5565b905092915050565b600080600060608486031215613c3e57613c3d613314565b5b6000613c4c8682870161339d565b935050602084013567ffffffffffffffff811115613c6d57613c6c613319565b5b613c79868287016136e7565b925050604084013567ffffffffffffffff811115613c9a57613c99613319565b5b613ca6868287016136e7565b9150509250925092565b600080600080600080600060e0888a031215613ccf57613cce613314565b5b6000613cdd8a828b0161339d565b9750506020613cee8a828b01613367565b9650506040613cff8a828b0161339d565b9550506060613d108a828b0161339d565b9450506080613d218a828b0161339d565b93505060a0613d328a828b0161339d565b92505060c0613d438a828b0161339d565b91505092959891949750929550565b60008060408385031215613d6957613d68613314565b5b6000613d778582860161339d565b9250506020613d8885828601613367565b9150509250929050565b60008060408385031215613da957613da8613314565b5b6000613db78582860161339d565b9250506020613dc88582860161339d565b9150509250929050565b600080600080600080600080610100898b031215613df357613df2613314565b5b6000613e018b828c0161339d565b9850506020613e128b828c01613367565b9750506040613e238b828c0161339d565b9650506060613e348b828c0161339d565b9550506080613e458b828c0161339d565b94505060a0613e568b828c0161339d565b93505060c0613e678b828c0161339d565b92505060e0613e788b828c01613367565b9150509295985092959890939650565b613e91816134a1565b8114613e9c57600080fd5b50565b600081359050613eae81613e88565b92915050565b60008060408385031215613ecb57613eca613314565b5b6000613ed985828601613367565b9250506020613eea85828601613e9f565b9150509250929050565b60008060408385031215613f0b57613f0a613314565b5b600083013567ffffffffffffffff811115613f2957613f28613319565b5b613f358582860161380b565b925050602083013567ffffffffffffffff811115613f5657613f55613319565b5b613f628582860161380b565b9150509250929050565b60008060408385031215613f8357613f82613314565b5b6000613f9185828601613367565b9250506020613fa285828601613367565b9150509250929050565b600080600080600060a08688031215613fc857613fc7613314565b5b6000613fd688828901613367565b9550506020613fe788828901613367565b9450506040613ff88882890161339d565b93505060606140098882890161339d565b925050608086013567ffffffffffffffff81111561402a57614029613319565b5b614036888289016138ac565b9150509295509295909350565b6000806040838503121561405a57614059613314565b5b600083013567ffffffffffffffff81111561407857614077613319565b5b614084858286016136e7565b925050602083013567ffffffffffffffff8111156140a5576140a4613319565b5b6140b1858286016136e7565b9150509250929050565b7f455243313135353a2061646472657373207a65726f206973206e6f742061207660008201527f616c6964206f776e657200000000000000000000000000000000000000000000602082015250565b6000614117602a8361350f565b9150614122826140bb565b604082019050919050565b600060208201905081810360008301526141468161410a565b9050919050565b600081905092915050565b600061416382613504565b61416d818561414d565b935061417d818560208601613520565b80840191505092915050565b7f4e487b7100000000000000000000000000000000000000000000000000000000600052602260045260246000fd5b600060028204905060018216806141d057607f821691505b6020821081036141e3576141e2614189565b5b50919050565b60008190508160005260206000209050919050565b6000815461420b816141b8565b614215818661414d565b94506001821660008114614230576001811461424557614278565b60ff1983168652811515820286019350614278565b61424e856141e9565b60005b8381101561427057815481890152600182019150602081019050614251565b838801955050505b50505092915050565b600061428d8285614158565b915061429982846141fe565b91508190509392505050565b60006020601f8301049050919050565b600082821b905092915050565b6000600883026142f27fffffffffffffffffffffffffffffffffffffffffffffffffffffffffffffffff826142b5565b6142fc86836142b5565b95508019841693508086168417925050509392505050565b6000819050919050565b600061433961433461432f8461337c565b614314565b61337c565b9050919050565b6000819050919050565b6143538361431e565b61436761435f82614340565b8484546142c2565b825550505050565b600090565b61437c61436f565b61438781848461434a565b505050565b5b818110156143ab576143a0600082614374565b60018101905061438d565b5050565b601f8211156143f0576143c1816141e9565b6143ca846142a5565b810160208510156143d9578190505b6143ed6143e5856142a5565b83018261438c565b50505b505050565b600082821c905092915050565b6000614413600019846008026143f5565b1980831691505092915050565b600061442c8383614402565b9150826002028217905092915050565b61444582613504565b67ffffffffffffffff81111561445e5761445d6135ea565b5b61446882546141b8565b6144738282856143af565b600060209050601f8311600181146144a65760008415614494578287015190505b61449e8582614420565b865550614506565b601f1984166144b4866141e9565b60005b828110156144dc578489015182556001820191506020850194506020810190506144b7565b868310156144f957848901516144f5601f891682614402565b8355505b6001600288020188555050505b505050505050565b7f596f752063616e2774206d696e742074686973207469636b657420286e6f742060008201527f6163746976652900000000000000000000000000000000000000000000000000602082015250565b600061456a60278361350f565b91506145758261450e565b604082019050919050565b600060208201905081810360008301526145998161455d565b9050919050565b6000815190506145af81613386565b92915050565b6000602082840312156145cb576145ca613314565b5b60006145d9848285016145a0565b91505092915050565b7f496e73756666696369656e7420746f6b656e2062616c616e63652e0000000000600082015250565b6000614618601b8361350f565b9150614623826145e2565b602082019050919050565b600060208201905081810360008301526146478161460b565b9050919050565b600060608201905061466360008301866135b6565b61467060208301856135b6565b61467d60408301846133f2565b949350505050565b60008151905061469481613e88565b92915050565b6000602082840312156146b0576146af613314565b5b60006146be84828501614685565b91505092915050565b7f666565207472616e73666572206661696c65642e000000000000000000000000600082015250565b60006146fd60148361350f565b9150614708826146c7565b602082019050919050565b6000602082019050818103600083015261472c816146f0565b9050919050565b7f4e487b7100000000000000000000000000000000000000000000000000000000600052601160045260246000fd5b600061476d8261337c565b91506147788361337c565b92508282026147868161337c565b9150828204841483151761479d5761479c614733565b5b5092915050565b7f4e487b7100000000000000000000000000000000000000000000000000000000600052601260045260246000fd5b60006147de8261337c565b91506147e98361337c565b9250826147f9576147f86147a4565b5b828204905092915050565b600061480f8261337c565b915061481a8361337c565b925082820190508082111561483257614831614733565b5b92915050565b600060408201905061484d60008301856135b6565b61485a60208301846133f2565b9392505050565b6000819050919050565b61487481614861565b811461487f57600080fd5b50565b6000815190506148918161486b565b92915050565b6000602082840312156148ad576148ac613314565b5b60006148bb84828501614882565b91505092915050565b7f455243313135353a2063616c6c6572206973206e6f7420746f6b656e206f776e60008201527f6572206f7220617070726f766564000000000000000000000000000000000000602082015250565b6000614920602e8361350f565b915061492b826148c4565b604082019050919050565b6000602082019050818103600083015261494f81614913565b9050919050565b7f455243313135353a206163636f756e747320616e6420696473206c656e67746860008201527f206d69736d617463680000000000000000000000000000000000000000000000602082015250565b60006149b260298361350f565b91506149bd82614956565b604082019050919050565b600060208201905081810360008301526149e1816149a5565b9050919050565b7f4e487b7100000000000000000000000000000000000000000000000000000000600052603260045260246000fd5b6000614a228261337c565b91507fffffffffffffffffffffffffffffffffffffffffffffffffffffffffffffffff8203614a5457614a53614733565b5b600182019050919050565b60008154614a6c816141b8565b614a76818661350f565b94506001821660008114614a915760018114614aa757614ada565b60ff198316865281151560200286019350614ada565b614ab0856141e9565b60005b83811015614ad257815481890152600182019150602081019050614ab3565b808801955050505b50505092915050565b600061012082019050614af9600083018c6133f2565b8181036020830152614b0b818b614a5f565b9050614b1a604083018a6135b6565b614b2760608301896135b6565b614b3460808301886133f2565b614b4160a08301876133f2565b614b4e60c08301866133f2565b614b5b60e08301856133f2565b614b696101008301846133f2565b9a9950505050505050505050565b7f596f752063616e27742077697468647261772073616c65732028556e6175746860008201527f6f72697a65642900000000000000000000000000000000000000000000000000602082015250565b6000614bd360278361350f565b9150614bde82614b77565b604082019050919050565b60006020820190508181036000830152614c0281614bc6565b9050919050565b7f496e73756666696369656e742073616c65732062616c616e6365000000000000600082015250565b6000614c3f601a8361350f565b9150614c4a82614c09565b602082019050919050565b60006020820190508181036000830152614c6e81614c32565b9050919050565b7f596f752063616e27742077697468647261772073616c6573207965742028657660008201527f656e74206e6f7420737461727429000000000000000000000000000000000000602082015250565b6000614cd1602e8361350f565b9150614cdc82614c75565b604082019050919050565b60006020820190508181036000830152614d0081614cc4565b9050919050565b7f546f6b656e207472616e73666572206661696c65640000000000000000000000600082015250565b6000614d3d60158361350f565b9150614d4882614d07565b602082019050919050565b60006020820190508181036000830152614d6c81614d30565b9050919050565b6000604082019050614d8860008301856133f2565b614d9560208301846133f2565b9392505050565b7f43616c6c6572206973206e6f7420746865206f776e65722e0000000000000000600082015250565b6000614dd260188361350f565b9150614ddd82614d9c565b602082019050919050565b60006020820190508181036000830152614e0181614dc5565b9050919050565b7f556e61626c652077697468647261770000000000000000000000000000000000600082015250565b6000614e3e600f8361350f565b9150614e4982614e08565b602082019050919050565b60006020820190508181036000830152614e6d81614e31565b9050919050565b7f796f7520646f6e277420686176652061207065726d697373696f6e202845727260008201527f6f72203a20343033290000000000000000000000000000000000000000000000602082015250565b6000614ed060298361350f565b9150614edb82614e74565b604082019050919050565b60006020820190508181036000830152614eff81614ec3565b9050919050565b7f455243313135353a206d696e7420746f20746865207a65726f2061646472657360008201527f7300000000000000000000000000000000000000000000000000000000000000602082015250565b6000614f6260218361350f565b9150614f6d82614f06565b604082019050919050565b60006020820190508181036000830152614f9181614f55565b9050919050565b7f455243313135353a206275726e2066726f6d20746865207a65726f206164647260008201527f6573730000000000000000000000000000000000000000000000000000000000602082015250565b6000614ff460238361350f565b9150614fff82614f98565b604082019050919050565b6000602082019050818103600083015261502381614fe7565b9050919050565b7f455243313135353a206275726e20616d6f756e7420657863656564732062616c60008201527f616e636500000000000000000000000000000000000000000000000000000000602082015250565b600061508660248361350f565b91506150918261502a565b604082019050919050565b600060208201905081810360008301526150b581615079565b9050919050565b7f455243313135353a2069647320616e6420616d6f756e7473206c656e6774682060008201527f6d69736d61746368000000000000000000000000000000000000000000000000602082015250565b600061511860288361350f565b9150615123826150bc565b604082019050919050565b600060208201905081810360008301526151478161510b565b9050919050565b7f455243313135353a207472616e7366657220746f20746865207a65726f20616460008201527f6472657373000000000000000000000000000000000000000000000000000000602082015250565b60006151aa60258361350f565b91506151b58261514e565b604082019050919050565b600060208201905081810360008301526151d98161519d565b9050919050565b7f455243313135353a20696e73756666696369656e742062616c616e636520666f60008201527f72207472616e7366657200000000000000000000000000000000000000000000602082015250565b600061523c602a8361350f565b9150615247826151e0565b604082019050919050565b6000602082019050818103600083015261526b8161522f565b9050919050565b6000604082019050818103600083015261528c8185613ba5565b905081810360208301526152a08184613ba5565b90509392505050565b7f455243313135353a2073657474696e6720617070726f76616c2073746174757360008201527f20666f722073656c660000000000000000000000000000000000000000000000602082015250565b600061530560298361350f565b9150615310826152a9565b604082019050919050565b60006020820190508181036000830152615334816152f8565b9050919050565b600081519050919050565b600082825260208201905092915050565b60006153628261533b565b61536c8185615346565b935061537c818560208601613520565b6153858161354a565b840191505092915050565b600060a0820190506153a560008301886135b6565b6153b260208301876135b6565b6153bf60408301866133f2565b6153cc60608301856133f2565b81810360808301526153de8184615357565b90509695505050505050565b6000815190506153f981613448565b92915050565b60006020828403121561541557615414613314565b5b6000615423848285016153ea565b91505092915050565b60008160e01c9050919050565b600060033d11156154585760046000803e61545560005161542c565b90505b90565b600060443d106154e85761546d61330a565b60043d036004823e80513d602482011167ffffffffffffffff821117156154955750506154e8565b808201805167ffffffffffffffff8111156154b357505050506154e8565b80602083010160043d0385018111156154d05750505050506154e8565b6154df82602001850186613619565b82955050505050505b90565b7f455243313135353a207472616e7366657220746f206e6f6e2d4552433131353560008201527f526563656976657220696d706c656d656e746572000000000000000000000000602082015250565b600061554760348361350f565b9150615552826154eb565b604082019050919050565b600060208201905081810360008301526155768161553a565b9050919050565b7f455243313135353a204552433131353552656365697665722072656a6563746560008201527f6420746f6b656e73000000000000000000000000000000000000000000000000602082015250565b60006155d960288361350f565b91506155e48261557d565b604082019050919050565b60006020820190508181036000830152615608816155cc565b9050919050565b600060a08201905061562460008301886135b6565b61563160208301876135b6565b81810360408301526156438186613ba5565b905081810360608301526156578185613ba5565b9050818103608083015261566b8184615357565b9050969550505050505056fea26469706673582212204ca7c9e33e91c29c5cb27613940875b2b9ea2ed61884521c28231d77bb5d66c764736f6c6343000811003368747470733a2f2f64616f2d6f72672e346174747261656d2e636f6d2f6d657461646174612f",
  "linkReferences": {},
  "deployedLinkReferences": {}
}