{
    "_format": "hh-sol-artifact-1",
    "contractName": "OracleLogicErc20",
    "sourceName": "contracts/OracleLogicErc20.sol",
    "abi": [
        {
            "constant": false,
            "inputs": [
                {
                    "name": "_spender",
                    "type": "address"
                },
                {
                    "name": "_value",
                    "type": "uint256"
                }
            ],
            "name": "approve",
            "outputs": [
                {
                    "name": "",
                    "type": "bool"
                }
            ],
            "payable": false,
            "stateMutability": "nonpayable",
            "type": "function"
        }
    ],
    "bytecode": "0x608060405260016004553480156200001657600080fd5b50620000376200002b6200012e60201b60201c565b6200013660201b60201c565b6200005c73326c977e6efc84e512bb9c30f76e30c160ed06fb620001fc60201b60201c565b670de0b6b3a7640000600a8190555073678173a60d0f098af059e1a0ddf1c29d10a30473600b60006101000a81548173ffffffffffffffffffffffffffffffffffffffff021916908373ffffffffffffffffffffffffffffffffffffffff1602179055507f3238313262323034643435613430326262353834663666316165623962373965600c8190555033600960006101000a81548173ffffffffffffffffffffffffffffffffffffffff021916908373ffffffffffffffffffffffffffffffffffffffff16021790555062000240565b600033905090565b6000600660009054906101000a900473ffffffffffffffffffffffffffffffffffffffff16905081600660006101000a81548173ffffffffffffffffffffffffffffffffffffffff021916908373ffffffffffffffffffffffffffffffffffffffff1602179055508173ffffffffffffffffffffffffffffffffffffffff168173ffffffffffffffffffffffffffffffffffffffff167f8be0079c531659141344cd1fd0a4f28419497f9722a3daafe3b4186f6b6457e060405160405180910390a35050565b80600260006101000a81548173ffffffffffffffffffffffffffffffffffffffff021916908373ffffffffffffffffffffffffffffffffffffffff16021790555050565b61222080620002506000396000f3fe6080604052600436106100dd5760003560e01c80638dc654a21161007f578063ca4f2afc11610059578063ca4f2afc14610248578063ce606ee014610271578063cf62f2001461029c578063f2fde38b146102dc576100dd565b80638dc654a2146101fc578063a3912ec814610213578063a3af3cee1461021d576100dd565b806359cb53cf116100bb57806359cb53cf1461015f578063653721471461018f578063715018a6146101ba5780638da5cb5b146101d1576100dd565b80630348cca6146100e2578063165d35e11461010b578063214a078614610136575b600080fd5b3480156100ee57600080fd5b50610109600480360381019061010491906115c9565b610305565b005b34801561011757600080fd5b50610120610317565b60405161012d9190611637565b60405180910390f35b34801561014257600080fd5b5061015d600480360381019061015891906116be565b610326565b005b6101796004803603810190610174919061173d565b61059f565b604051610186919061179f565b60405180910390f35b34801561019b57600080fd5b506101a4610791565b6040516101b191906117c9565b60405180910390f35b3480156101c657600080fd5b506101cf610797565b005b3480156101dd57600080fd5b506101e66107ab565b6040516101f39190611637565b60405180910390f35b34801561020857600080fd5b506102116107d5565b005b61021b610922565b005b34801561022957600080fd5b50610232610924565b60405161023f919061179f565b60405180910390f35b34801561025457600080fd5b5061026f600480360381019061026a919061183c565b61092a565b005b34801561027d57600080fd5b50610286610945565b6040516102939190611637565b60405180910390f35b3480156102a857600080fd5b506102c360048036038101906102be91906115c9565b61096b565b6040516102d3949392919061188f565b60405180910390f35b3480156102e857600080fd5b5061030360048036038101906102fe91906118d4565b6109fb565b005b61030d610a7e565b80600c8190555050565b6000610321610afc565b905090565b826005600082815260200190815260200160002060009054906101000a900473ffffffffffffffffffffffffffffffffffffffff1673ffffffffffffffffffffffffffffffffffffffff163373ffffffffffffffffffffffffffffffffffffffff16146103c8576040517f08c379a00000000000000000000000000000000000000000000000000000000081526004016103bf90611984565b60405180910390fd5b6005600082815260200190815260200160002060006101000a81549073ffffffffffffffffffffffffffffffffffffffff0219169055807f7cc135e0cebb02c3480ae5d74d377283180a2601f8f644edf7987b009316c63a60405160405180910390a28160088190555082600e81905550600183036105995760006007600086815260200190815260200160002060010160009054906101000a900473ffffffffffffffffffffffffffffffffffffffff16905060006007600087815260200190815260200160002060000160009054906101000a900473ffffffffffffffffffffffffffffffffffffffff16905060006007600088815260200190815260200160002060020160009054906101000a900473ffffffffffffffffffffffffffffffffffffffff16905060006007600089815260200190815260200160002060030154905060008490508073ffffffffffffffffffffffffffffffffffffffff166323b872dd8486856040518463ffffffff1660e01b815260040161054f939291906119a4565b6020604051808303816000875af115801561056e573d6000803e3d6000fd5b505050506040513d601f19601f820116820180604052508101906105929190611a13565b5050505050505b50505050565b6000806105b6600c543063214a078660e01b610b26565b90506106376040518060400160405280600681526020017f706172616d7300000000000000000000000000000000000000000000000000008152506040518060400160405280601381526020017f73616d706c652074696d6520616461707465720000000000000000000000000081525083610b579092919063ffffffff16565b610666600b60009054906101000a900473ffffffffffffffffffffffffffffffffffffffff1682600a54610b8a565b915081600d81905550836007600084815260200190815260200160002060000160006101000a81548173ffffffffffffffffffffffffffffffffffffffff021916908373ffffffffffffffffffffffffffffffffffffffff160217905550846007600084815260200190815260200160002060010160006101000a81548173ffffffffffffffffffffffffffffffffffffffff021916908373ffffffffffffffffffffffffffffffffffffffff160217905550336007600084815260200190815260200160002060020160006101000a81548173ffffffffffffffffffffffffffffffffffffffff021916908373ffffffffffffffffffffffffffffffffffffffff160217905550826007600084815260200190815260200160002060030181905550509392505050565b600e5481565b61079f610a7e565b6107a96000610c56565b565b6000600660009054906101000a900473ffffffffffffffffffffffffffffffffffffffff16905090565b6107dd610a7e565b60006107e7610afc565b90508073ffffffffffffffffffffffffffffffffffffffff1663a9059cbb338373ffffffffffffffffffffffffffffffffffffffff166370a08231306040518263ffffffff1660e01b815260040161083f9190611637565b602060405180830381865afa15801561085c573d6000803e3d6000fd5b505050506040513d601f19601f820116820180604052508101906108809190611a55565b6040518363ffffffff1660e01b815260040161089d929190611a82565b6020604051808303816000875af11580156108bc573d6000803e3d6000fd5b505050506040513d601f19601f820116820180604052508101906108e09190611a13565b61091f576040517f08c379a000000000000000000000000000000000000000000000000000000000815260040161091690611af7565b60405180910390fd5b50565b565b600d5481565b610932610a7e565b61094083600a548484610d1c565b505050565b600960009054906101000a900473ffffffffffffffffffffffffffffffffffffffff1681565b60076020528060005260406000206000915090508060000160009054906101000a900473ffffffffffffffffffffffffffffffffffffffff16908060010160009054906101000a900473ffffffffffffffffffffffffffffffffffffffff16908060020160009054906101000a900473ffffffffffffffffffffffffffffffffffffffff16908060030154905084565b610a03610a7e565b600073ffffffffffffffffffffffffffffffffffffffff168173ffffffffffffffffffffffffffffffffffffffff1603610a72576040517f08c379a0000000000000000000000000000000000000000000000000000000008152600401610a6990611b89565b60405180910390fd5b610a7b81610c56565b50565b610a86610e2f565b73ffffffffffffffffffffffffffffffffffffffff16610aa46107ab565b73ffffffffffffffffffffffffffffffffffffffff1614610afa576040517f08c379a0000000000000000000000000000000000000000000000000000000008152600401610af190611bf5565b60405180910390fd5b565b6000600260009054906101000a900473ffffffffffffffffffffffffffffffffffffffff16905090565b610b2e611507565b610b36611507565b610b4d85858584610e37909392919063ffffffff16565b9150509392505050565b610b6e828460800151610ee790919063ffffffff16565b610b85818460800151610ee790919063ffffffff16565b505050565b6000806004549050600181610b9f9190611c44565b6004819055506000634042994660e01b60008087600001513089604001518760018c6080015160000151604051602401610be0989796959493929190611d17565b604051602081830303815290604052907bffffffffffffffffffffffffffffffffffffffffffffffffffffffff19166020820180517bffffffffffffffffffffffffffffffffffffffffffffffffffffffff83818316178352505050509050610c4b86838684610f0c565b925050509392505050565b6000600660009054906101000a900473ffffffffffffffffffffffffffffffffffffffff16905081600660006101000a81548173ffffffffffffffffffffffffffffffffffffffff021916908373ffffffffffffffffffffffffffffffffffffffff1602179055508173ffffffffffffffffffffffffffffffffffffffff168173ffffffffffffffffffffffffffffffffffffffff167f8be0079c531659141344cd1fd0a4f28419497f9722a3daafe3b4186f6b6457e060405160405180910390a35050565b60006005600086815260200190815260200160002060009054906101000a900473ffffffffffffffffffffffffffffffffffffffff1690506005600086815260200190815260200160002060006101000a81549073ffffffffffffffffffffffffffffffffffffffff0219169055847fe1fe3afa0f7f761ff0a8b89086790efd5140d2907ebd5b7ff6bfcb5e075fd4c560405160405180910390a28073ffffffffffffffffffffffffffffffffffffffff16636ee4d553868686866040518563ffffffff1660e01b8152600401610df69493929190611d9c565b600060405180830381600087803b158015610e1057600080fd5b505af1158015610e24573d6000803e3d6000fd5b505050505050505050565b600033905090565b610e3f611507565b610e4f85608001516101006110a1565b508385600001818152505082856020019073ffffffffffffffffffffffffffffffffffffffff16908173ffffffffffffffffffffffffffffffffffffffff16815250508185604001907bffffffffffffffffffffffffffffffffffffffffffffffffffffffff191690817bffffffffffffffffffffffffffffffffffffffffffffffffffffffff191681525050849050949350505050565b610ef4826003835161110b565b610f07818361129090919063ffffffff16565b505050565b60003084604051602001610f21929190611e9a565b604051602081830303815290604052805190602001209050846005600083815260200190815260200160002060006101000a81548173ffffffffffffffffffffffffffffffffffffffff021916908373ffffffffffffffffffffffffffffffffffffffff160217905550807fb5e6e01e79f91267dc17b4e6314d5d4d03593d2ceee0fbb452b750bd70ea5af960405160405180910390a2600260009054906101000a900473ffffffffffffffffffffffffffffffffffffffff1673ffffffffffffffffffffffffffffffffffffffff16634000aea08685856040518463ffffffff1660e01b815260040161101793929190611ec6565b6020604051808303816000875af1158015611036573d6000803e3d6000fd5b505050506040513d601f19601f8201168201806040525081019061105a9190611a13565b611099576040517f08c379a000000000000000000000000000000000000000000000000000000000815260040161109090611f76565b60405180910390fd5b949350505050565b6110a9611574565b60006020836110b89190611fc5565b146110e4576020826110ca9190611fc5565b60206110d69190611ff6565b826110e19190611c44565b91505b81836020018181525050604051808452600081528281016020016040525082905092915050565b60178167ffffffffffffffff16116111425761113c8160058460ff16901b60ff1617846112b290919063ffffffff16565b5061128b565b60ff8167ffffffffffffffff161161119857611171601860058460ff16901b17846112b290919063ffffffff16565b506111928167ffffffffffffffff166001856112d29092919063ffffffff16565b5061128a565b61ffff8167ffffffffffffffff16116111ef576111c8601960058460ff16901b17846112b290919063ffffffff16565b506111e98167ffffffffffffffff166002856112d29092919063ffffffff16565b50611289565b63ffffffff8167ffffffffffffffff161161124857611221601a60058460ff16901b17846112b290919063ffffffff16565b506112428167ffffffffffffffff166004856112d29092919063ffffffff16565b50611288565b611265601b60058460ff16901b17846112b290919063ffffffff16565b506112868167ffffffffffffffff166008856112d29092919063ffffffff16565b505b5b5b5b505050565b611298611574565b6112aa838460000151518485516112f4565b905092915050565b6112ba611574565b6112ca83846000015151846113e3565b905092915050565b6112da611574565b6112eb848560000151518585611439565b90509392505050565b6112fc611574565b825182111561130a57600080fd5b8460200151828561131b9190611c44565b11156113505761134f8560026113408860200151888761133b9190611c44565b6114c7565b61134a919061202a565b6114e3565b5b60008086518051876020830101935080888701111561136f5787860182525b60208701925050505b602084106113b657805182526020826113919190611c44565b91506020816113a09190611c44565b90506020846113af9190611ff6565b9350611378565b60006001856020036101000a03905080198251168184511681811785525050508692505050949350505050565b6113eb611574565b8360200151831061141157611410846002866020015161140b919061202a565b6114e3565b5b8351805160208583010184815381860361142c576001820183525b5050508390509392505050565b611441611574565b846020015184836114529190611c44565b111561147a57611479856002868561146a9190611c44565b611474919061202a565b6114e3565b5b600060018361010061148c919061219f565b6114969190611ff6565b905085518386820101858319825116178152815185880111156114b95784870182525b505085915050949350505050565b6000818311156114d9578290506114dd565b8190505b92915050565b6000826000015190506114f683836110a1565b506115018382611290565b50505050565b6040518060a0016040528060008019168152602001600073ffffffffffffffffffffffffffffffffffffffff16815260200160007bffffffffffffffffffffffffffffffffffffffffffffffffffffffff191681526020016000815260200161156e611574565b81525090565b604051806040016040528060608152602001600081525090565b600080fd5b6000819050919050565b6115a681611593565b81146115b157600080fd5b50565b6000813590506115c38161159d565b92915050565b6000602082840312156115df576115de61158e565b5b60006115ed848285016115b4565b91505092915050565b600073ffffffffffffffffffffffffffffffffffffffff82169050919050565b6000611621826115f6565b9050919050565b61163181611616565b82525050565b600060208201905061164c6000830184611628565b92915050565b6000819050919050565b61166581611652565b811461167057600080fd5b50565b6000813590506116828161165c565b92915050565b6000819050919050565b61169b81611688565b81146116a657600080fd5b50565b6000813590506116b881611692565b92915050565b6000806000606084860312156116d7576116d661158e565b5b60006116e5868287016115b4565b93505060206116f686828701611673565b9250506040611707868287016116a9565b9150509250925092565b61171a81611616565b811461172557600080fd5b50565b60008135905061173781611711565b92915050565b6000806000606084860312156117565761175561158e565b5b600061176486828701611728565b935050602061177586828701611728565b925050604061178686828701611673565b9150509250925092565b61179981611593565b82525050565b60006020820190506117b46000830184611790565b92915050565b6117c381611652565b82525050565b60006020820190506117de60008301846117ba565b92915050565b60007fffffffff0000000000000000000000000000000000000000000000000000000082169050919050565b611819816117e4565b811461182457600080fd5b50565b60008135905061183681611810565b92915050565b6000806000606084860312156118555761185461158e565b5b6000611863868287016115b4565b935050602061187486828701611827565b925050604061188586828701611673565b9150509250925092565b60006080820190506118a46000830187611628565b6118b16020830186611628565b6118be6040830185611628565b6118cb60608301846117ba565b95945050505050565b6000602082840312156118ea576118e961158e565b5b60006118f884828501611728565b91505092915050565b600082825260208201905092915050565b7f536f75726365206d75737420626520746865206f7261636c65206f662074686560008201527f2072657175657374000000000000000000000000000000000000000000000000602082015250565b600061196e602883611901565b915061197982611912565b604082019050919050565b6000602082019050818103600083015261199d81611961565b9050919050565b60006060820190506119b96000830186611628565b6119c66020830185611628565b6119d360408301846117ba565b949350505050565b60008115159050919050565b6119f0816119db565b81146119fb57600080fd5b50565b600081519050611a0d816119e7565b92915050565b600060208284031215611a2957611a2861158e565b5b6000611a37848285016119fe565b91505092915050565b600081519050611a4f8161165c565b92915050565b600060208284031215611a6b57611a6a61158e565b5b6000611a7984828501611a40565b91505092915050565b6000604082019050611a976000830185611628565b611aa460208301846117ba565b9392505050565b7f556e61626c6520746f207472616e736665720000000000000000000000000000600082015250565b6000611ae1601283611901565b9150611aec82611aab565b602082019050919050565b60006020820190508181036000830152611b1081611ad4565b9050919050565b7f4f776e61626c653a206e6577206f776e657220697320746865207a65726f206160008201527f6464726573730000000000000000000000000000000000000000000000000000602082015250565b6000611b73602683611901565b9150611b7e82611b17565b604082019050919050565b60006020820190508181036000830152611ba281611b66565b9050919050565b7f4f776e61626c653a2063616c6c6572206973206e6f7420746865206f776e6572600082015250565b6000611bdf602083611901565b9150611bea82611ba9565b602082019050919050565b60006020820190508181036000830152611c0e81611bd2565b9050919050565b7f4e487b7100000000000000000000000000000000000000000000000000000000600052601160045260246000fd5b6000611c4f82611652565b9150611c5a83611652565b9250828201905080821115611c7257611c71611c15565b5b92915050565b611c81816117e4565b82525050565b600081519050919050565b600082825260208201905092915050565b60005b83811015611cc1578082015181840152602081019050611ca6565b60008484015250505050565b6000601f19601f8301169050919050565b6000611ce982611c87565b611cf38185611c92565b9350611d03818560208601611ca3565b611d0c81611ccd565b840191505092915050565b600061010082019050611d2d600083018b611628565b611d3a602083018a6117ba565b611d476040830189611790565b611d546060830188611628565b611d616080830187611c78565b611d6e60a08301866117ba565b611d7b60c08301856117ba565b81810360e0830152611d8d8184611cde565b90509998505050505050505050565b6000608082019050611db16000830187611790565b611dbe60208301866117ba565b611dcb6040830185611c78565b611dd860608301846117ba565b95945050505050565b6000819050919050565b6000611e06611e01611dfc846115f6565b611de1565b6115f6565b9050919050565b6000611e1882611deb565b9050919050565b6000611e2a82611e0d565b9050919050565b60008160601b9050919050565b6000611e4982611e31565b9050919050565b6000611e5b82611e3e565b9050919050565b611e73611e6e82611e1f565b611e50565b82525050565b6000819050919050565b611e94611e8f82611652565b611e79565b82525050565b6000611ea68285611e62565b601482019150611eb68284611e83565b6020820191508190509392505050565b6000606082019050611edb6000830186611628565b611ee860208301856117ba565b8181036040830152611efa8184611cde565b9050949350505050565b7f756e61626c6520746f207472616e73666572416e6443616c6c20746f206f726160008201527f636c650000000000000000000000000000000000000000000000000000000000602082015250565b6000611f60602383611901565b9150611f6b82611f04565b604082019050919050565b60006020820190508181036000830152611f8f81611f53565b9050919050565b7f4e487b7100000000000000000000000000000000000000000000000000000000600052601260045260246000fd5b6000611fd082611652565b9150611fdb83611652565b925082611feb57611fea611f96565b5b828206905092915050565b600061200182611652565b915061200c83611652565b925082820390508181111561202457612023611c15565b5b92915050565b600061203582611652565b915061204083611652565b925082820261204e81611652565b9150828204841483151761206557612064611c15565b5b5092915050565b60008160011c9050919050565b6000808291508390505b60018511156120c35780860481111561209f5761209e611c15565b5b60018516156120ae5780820291505b80810290506120bc8561206c565b9450612083565b94509492505050565b6000826120dc5760019050612198565b816120ea5760009050612198565b8160018114612100576002811461210a57612139565b6001915050612198565b60ff84111561211c5761211b611c15565b5b8360020a91508482111561213357612132611c15565b5b50612198565b5060208310610133831016604e8410600b841016171561216e5782820a90508381111561216957612168611c15565b5b612198565b61217b8484846001612079565b9250905081840481111561219257612191611c15565b5b81810290505b9392505050565b60006121aa82611652565b91506121b583611652565b92506121e27fffffffffffffffffffffffffffffffffffffffffffffffffffffffffffffffff84846120cc565b90509291505056fea2646970667358221220d85543851e851c293359e9ee1a185f65a3e8c769f9d5e0ab87ccfc9fd6d8771864736f6c63430008110033",
    "linkReferences": {},
    "deployedLinkReferences": {}
}